:020000040800F2
:100000000050002005200008FD1E0008FF1E00080B
:10001000011F0008031F0008051F00080000000062
:10002000000000000000000000000000071F0008A2
:10003000091F0008000000000B1F00080D1F00082A
:100040004D2000084D2000084D2000084D200008DC
:100050004D2000084D2000084D2000084D200008CC
:100060004D2000084D2000084D2000084D200008BC
:100070004D2000084D2000084D2000084D200008AC
:100080004D2000084D2000084D2000084D2000089C
:100090004D2000084D2000084D2000084D2000088C
:1000A0004D2000084D2000084D2000084D2000087C
:1000B0004D2000084D2000084D2000084D2000086C
:1000C0004D2000084D2000084D2000084D2000085C
:1000D0004D200008351F00084D2000084D20000865
:1000E0004D2000084D2000084D20000800000000B1
:1000F0000000000000000000000000000000000000
:0C01000000000000000000005FF808F1A3
:1001100010B5054C237833B9044B13B10448AFF341
:1001200000800123237010BDC009002000000000E2
:100130001893000808B5034B1BB103490348AFF3FC
:10014000008008BD00000000C409002018930008CA
:1001500081F0004102E000BF83F0004330B54FEA78
:1001600041044FEA430594EA050F08BF90EA020FE5
:100170001FBF54EA000C55EA020C7FEA645C7FEA78
:10018000655C00F0E2804FEA5454D4EB5555B8BF9B
:100190006D420CDD2C4480EA020281EA030382EA0C
:1001A000000083EA010180EA020281EA0303362D9E
:1001B00088BF30BD11F0004F4FEA01314FF4801C71
:1001C0004CEA113102D0404261EB410113F0004F83
:1001D0004FEA03334CEA133302D0524263EB43033A
:1001E00094EA050F00F0A780A4F10104D5F1200ED8
:1001F0000DDB02FA0EFC22FA05F2801841F1000133
:1002000003FA0EF2801843FA05F359410EE0A5F106
:1002100020050EF1200E012A03FA0EFC28BF4CF037
:10022000020C43FA05F3C01851EBE37101F00045ED
:1002300007D54FF0000EDCF1000C7EEB00006EEBFA
:100240000101B1F5801F1BD3B1F5001F0CD3490884
:100250005FEA30004FEA3C0C04F101044FEA4452DB
:1002600012F5800F80F09A80BCF1004F08BF5FEA62
:10027000500C50F1000041EB045141EA050130BD42
:100280005FEA4C0C404141EB0101013C28BFB1F554
:10029000801FE9D291F0000F04BF01460020B1FA9F
:1002A00081F308BF2033A3F10B03B3F120020CDA72
:1002B0000C3208DD02F1140CC2F10C0201FA0CF050
:1002C00021FA02F10CE002F11402D8BFC2F1200CB5
:1002D00001FA02F120FA0CFCDCBF41EA0C0190406B
:1002E000E41AA2BF01EB0451294330BD6FEA0404B4
:1002F0001F3C1CDA0C340EDC04F11404C4F120029F
:1003000020FA04F001FA02F340EA030021FA04F3B0
:1003100045EA030130BDC4F10C04C4F1200220FA07
:1003200002F001FA04F340EA0300294630BD21FA45
:1003300004F0294630BD94F0000F83F4801306BF0B
:1003400081F480110134013D4EE77FEA645C18BFFF
:100350007FEA655C29D094EA050F08BF90EA020F96
:1003600005D054EA000C04BF1946104630BD91EA8E
:10037000030F1EBF0021002030BD5FEA545C05D191
:100380004000494128BF41F0004130BD14F58004D0
:100390003CBF01F5801130BD01F0004545F0FE4144
:1003A00041F470014FF0000030BD7FEA645C1ABF79
:1003B000194610467FEA655C1CBF0B46024650EAB0
:1003C000013406BF52EA033591EA030F41F40021DC
:1003D00030BD00BF90F0000F04BF0021704730B562
:1003E0004FF4806404F132044FF000054FF0000137
:1003F00050E700BF90F0000F04BF0021704730B5F8
:100400004FF4806404F1320410F0004548BF4042CC
:100410004FF000013EE700BF42004FEAE2014FEA21
:1004200031014FEA02701FBF12F07F4393F07F4FFC
:1004300081F06051704732F07F4208BF704793F0FF
:100440007F4F04BF41F40021704730B54FF4607412
:1004500001F0004521F000411CE700BF50EA010215
:1004600008BF704730B54FF000050AE050EA0102BE
:1004700008BF704730B511F0004502D5404261EB2E
:1004800041014FF4806404F132045FEA915C3FF46F
:10049000D8AE4FF003025FEADC0C18BF03325FEA0C
:1004A000DC0C18BF033202EBDC02C2F1200300FABD
:1004B00003FC20FA02F001FA03FE40EA0E0021FAE2
:1004C00002F11444BDE600BF70B54FF0FF0C4CF4D0
:1004D000E06C1CEA11541DBF1CEA135594EA0C0F82
:1004E00095EA0C0F00F0DEF82C4481EA030621EABD
:1004F0004C5123EA4C5350EA013518BF52EA0335F8
:1005000041F4801143F4801338D0A0FB02CE4FF0A9
:100510000005E1FB02E506F00042E0FB03E54FF0D9
:100520000006E1FB03569CF0000F18BF4EF0010ED1
:10053000A4F1FF04B6F5007F64F5407404D25FEACD
:100540004E0E6D4146EB060642EAC62141EA555180
:100550004FEAC52040EA5E504FEACE2EB4F1FD0CC2
:1005600088BFBCF5E06F1ED8BEF1004F08BF5FEA40
:10057000500E50F1000041EB045170BD06F00046F2
:1005800046EA010140EA020081EA0301B4EB5C049F
:10059000C2BFD4EB0C0541EA045170BD41F4801197
:1005A0004FF0000E013C00F3AB8014F1360FDEBFBC
:1005B000002001F0004170BDC4F10004203C35DA98
:1005C0000C341BDC04F11404C4F1200500FA05F31B
:1005D00020FA04F001FA05F240EA020001F00042BC
:1005E00021F0004110EBD37021FA04F642EB060132
:1005F0005EEA430E08BF20EAD37070BDC4F10C045C
:10060000C4F1200500FA04F320FA05F001FA04F21F
:1006100040EA020001F0004110EBD37041F100010B
:100620005EEA430E08BF20EAD37070BDC4F1200516
:1006300000FA05F24EEA020E20FA04F301FA05F27E
:1006400043EA020321FA04F001F0004121FA04F226
:1006500020EA020000EBD3705EEA430E08BF20EAF6
:10066000D37070BD94F0000F0FD101F00046400030
:1006700041EB010111F4801F08BF013CF7D041EAB2
:10068000060195F0000F18BF704703F000465200B6
:1006900043EB030313F4801F08BF013DF7D043EA87
:1006A0000603704794EA0C0F0CEA135518BF95EA3D
:1006B0000C0F0CD050EA410618BF52EA4306D1D1C4
:1006C00081EA030101F000414FF0000070BD50EAE3
:1006D000410606BF1046194652EA430619D094EA6D
:1006E0000C0F02D150EA013613D195EA0C0F05D157
:1006F00052EA03361CBF104619460AD181EA0301AB
:1007000001F0004141F0FE4141F470014FF0000062
:1007100070BD41F0FE4141F4780170BD70B54FF0FD
:10072000FF0C4CF4E06C1CEA11541DBF1CEA13557D
:1007300094EA0C0F95EA0C0F00F0A7F8A4EB05045F
:1007400081EA030E52EA03354FEA013100F0888056
:100750004FEA03334FF0805545EA131343EA12631F
:100760004FEA022245EA111545EA10654FEA0026D4
:100770000EF000419D4208BF964244F1FD0404F58D
:10078000407402D25B084FEA3202B61A65EB0305E9
:100790005B084FEA32024FF480104FF4002CB6EBA6
:1007A000020E75EB030E22BFB61A754640EA0C0026
:1007B0005B084FEA3202B6EB020E75EB030E22BF66
:1007C000B61A754640EA5C005B084FEA3202B6EBA7
:1007D000020E75EB030E22BFB61A754640EA9C0066
:1007E0005B084FEA3202B6EB020E75EB030E22BF36
:1007F000B61A754640EADC0055EA060E18D04FEAF4
:10080000051545EA16754FEA06164FEAC30343EA93
:1008100052734FEAC2025FEA1C1CC0D111F4801F60
:100820000BD141EA00014FF000004FF0004CB6E759
:1008300011F4801F04BF01430020B4F1FD0C88BFF8
:10084000BCF5E06F3FF6AFAEB5EB030C04BFB6EB03
:10085000020C5FEA500C50F1000041EB045170BDF6
:100860000EF0004E4EEA113114EB5C04C2BFD4EB23
:100870000C0541EA045170BD41F480114FF0000EA7
:10088000013C90E645EA060E8DE60CEA135594EA23
:100890000C0F08BF95EA0C0F3FF43BAF94EA0C0F26
:1008A0000AD150EA01347FF434AF95EA0C0F7FF49B
:1008B00025AF104619462CE795EA0C0F06D152EAEF
:1008C00003353FF4FDAE1046194622E750EA4106D3
:1008D00018BF52EA43067FF4C5AE50EA41047FF4E4
:1008E0000DAF52EA43057FF4EBAE12E74FEA410247
:1008F000B2F1E04324BFB3F5001CDCF1FE5C0DD97E
:1009000001F0004C4FEAC0024CEA5070B2F1004FC7
:1009100040EB830008BF20F00100704711F0804FCA
:1009200021D113F13872BCBF01F00040704741F48F
:1009300080114FEA5252C2F11802C2F1200C10FA93
:100940000CF320FA02F018BF40F001004FEAC12377
:100950004FEAD32303FA0CFC40EA0C0023FA02F31B
:100960004FEA4303CCE77FEA625307D150EA0133F1
:100970001EBF4FF0FE4040F44000704701F00040C1
:1009800040F0FE4040F40000704700BF42000ED22D
:10099000B2F1FE4F0BD34FF09E03B3EB126209D4BA
:1009A0004FEA002343F0004323FA02F070474FF070
:1009B0000000704712F1610F01D1420202D14FF0E5
:1009C000FF3070474FF00000704700BF844641EA97
:1009D000000313F0030349D1403A23D30B680360AB
:1009E0004B6843608B688360CB68C3600B690361AD
:1009F0004B6943618B698361CB69C3610B6A036295
:100A00004B6A43628B6A8362CB6AC3620B6B03637C
:100A10004B6B43638B6B8363CB6BC3634030403161
:100A2000403ADBD230320BD30B6803604B68436033
:100A30008B688360CB68C36010301031103AF3D2FA
:100A40000C3205D351F8043B40F8043B043AF9D288
:100A5000043208D0D2071CBF11F8013B00F8013B5B
:100A600001D30B8803806046704700BF082A13D368
:100A70008B07B1D010F00303AED0C3F10403D21A38
:100A8000DB071CBF11F8013B00F8013BA4D331F890
:100A9000023B20F8023B9FE7043AD9D3013A11F810
:100AA000013B00F8013BF9D20B7803704B7843709F
:100AB0008B788370604670474FF0FF3C06E000BFC4
:100AC0004FF0010C02E000BF4FF0010C4DF804CDD7
:100AD0004FEA410C7FEA6C5C4FEA430C18BF7FEA97
:100AE0006C5C1BD001B050EA410C0CBF52EA430CC5
:100AF00091EA030F02BF90EA020F0020704710F145
:100B0000000F91EA030F58BF994208BF90422CBFD3
:100B1000D8176FEAE37040F0010070474FEA410CCC
:100B20007FEA6C5C02D150EA013C07D14FEA430CEA
:100B30007FEA6C5CD6D152EA033CD3D05DF8040B5B
:100B4000704700BF8446104662468C46194663468D
:100B500000E000BF01B5FFF7B7FF002848BF10F164
:100B6000000F01BD4DF808EDFFF7F4FF0CBF0120A9
:100B700000205DF808FB00BF4DF808EDFFF7EAFF25
:100B800034BF012000205DF808FB00BF4DF808EDE0
:100B9000FFF7E0FF94BF012000205DF808FB00BFD5
:100BA0004DF808EDFFF7CEFF94BF012000205DF85F
:100BB00008FB00BF4DF808EDFFF7C4FF34BF01206C
:100BC00000205DF808FB00BF4FEA410C7FEA6C5C37
:100BD00002D150EA013C0AD14FEA430C7FEA6C5C37
:100BE00002D152EA033C02D14FF0000070474FF0AF
:100BF000010070474FEA410212F5001215D211D5DB
:100C00006FF47873B3EB625212D94FEAC12343F009
:100C1000004343EA505311F0004F23FA02F018BF8B
:100C2000404270474FF00000704750EA013005D154
:100C300011F0004008BF6FF0004070474FF0000017
:100C4000704700BF53B94AB9002908BF00281CBF2C
:100C50004FF0FF314FF0FF3000F076B9ADF1080CE6
:100C60006DE904CE00F006F8DDF804E0DDE90223CA
:100C700004B070472DE9F047089E0D4604468846AB
:100C8000002B4DD18A42944668D9B2FA82F252B111
:100C900001FA02F3C2F1200120FA01F10CFA02FC80
:100CA00041EA030894404FEA1C41B8FBF1F71FFAF0
:100CB0008CFE01FB178807FB0EF0230C43EA084368
:100CC00098420AD91CEB030307F1FF3580F01E811F
:100CD000984240F21B81023F63441B1AB3FBF1F0C0
:100CE00001FB103300FB0EFEA4B244EA0344A64508
:100CF0000AD91CEB040400F1FF3380F00981A645FA
:100D000040F20681644402380021A4EB0E0440EA5C
:100D100007401EB10023D440C6E90043BDE8F08778
:100D20008B4208D9002E00F0EE800021C6E90005B4
:100D30000846BDE8F087B3FA83F100294AD1AB42F7
:100D400002D3824200F2FC80841A65EB0303012087
:100D50009846002EE2D0C6E90048DFE702B9FFDE80
:100D6000B2FA82F2002A40F09180A1EB0C0001213E
:100D70004FEA1C471FFA8CFEB0FBF7F307FB13008A
:100D8000250C45EA00450EFB03F0A84208D91CEBF0
:100D9000050503F1FF3802D2A84200F2CE80434697
:100DA0002D1AB5FBF7F007FB10550EFB00FEA4B2A1
:100DB00044EA0544A64508D91CEB040400F1FF35BC
:100DC00002D2A64500F2B6802846A4EB0E0440EA03
:100DD00003409EE7C1F120078B4022FA07FC4CEA52
:100DE000030C25FA07FA4FEA1C49BAFBF9F820FA76
:100DF00007F309FB18AA8D401FFA8CFE1D4300FA69
:100E000001F308FB0EF02C0C44EA0A44A04202FA5B
:100E100001F20BD91CEB040408F1FF3A80F0888042
:100E2000A04240F28580A8F102086444241AB4FB71
:100E3000F9F009FB104400FB0EFEADB245EA044494
:100E4000A64508D91CEB040400F1FF356CD2A64579
:100E50006AD90238644440EA0840A0FB0295A4EB3A
:100E60000E04AC42C846AE4656D353D0002E69D0CD
:100E7000B3EB080264EB0E0422FA01F304FA07F75D
:100E80001F43CC40C6E90074002147E70CFA02FC7E
:100E9000C2F1200125FA01F34FEA1C4720FA01F1C3
:100EA00095400D43B3FBF7F107FB11331FFA8CFE9E
:100EB000280C40EA034001FB0EF3834204FA02F4DB
:100EC00008D91CEB000001F1FF382FD283422DD945
:100ED00002396044C01AB0FBF7F307FB1300ADB250
:100EE00045EA004503FB0EF0A84208D91CEB0505B6
:100EF00003F1FF3816D2A84214D9023B6544281AE0
:100F000043EA014138E73146304607E72F46E4E639
:100F10001846F9E64B45A9D2B9EB020865EB0C0E71
:100F20000138A3E74346EAE7284694E74146D1E77C
:100F3000D0467BE76444023847E7023B65442FE72D
:100F4000084606E73146E9E6704700BF00B587B0BE
:100F50000C4B9A6942F008029A619B6903F00803FE
:100F60000193019B20230293012303930023049305
:100F70000323059302A9044801F0E0FA07B05DF8E5
:100F800004FB00BF00100240000C014010B500241B
:100F900009E02021054801F0F0FB40F29A2000F022
:100FA00049F80134E4B2C72CF3D910BD000C01405C
:100FB000F0B587B004460F4616460025059501F0AA
:100FC0009FF90497A40204F100640394019505A914
:100FD00001A801F061FA32462B460399022001F084
:100FE000E7F901F0A7F907B0F0BD00F50030800285
:100FF0000068704708B5042001F0E0F80A4B1B6850
:101000000A4AA2FB03239B09013BB3F1807F0AD26A
:101010004FF0E0225361064BF02183F823100023A8
:1010200093610723136108BD04000020D34D6210B3
:1010300000ED00E010B44FF0E0225469B0F57A7F83
:1010400028BF4FF47A700E4B1B680E49A1FB033C7E
:101050004FEA9C4C0CFB00FC9369002104E0E01A71
:1010600002441144614509D21A464FF0E0239B69BE
:101070009A42FAD0F3D9D21A1144F3E710BC704760
:101080000400002083DE1B4338B50546002404E03D
:101090004FF47A70FFF7CEFF0134AC42F8D338BD7D
:1010A0002DE9F04186B00024029403940494059441
:1010B0001B4B9A6942F004029A619B6903F0040396
:1010C0000193019B4FF4006602964FF00108CDF8A2
:1010D0000C8003270597134D02A9284601F02EFA2C
:1010E0004FF4805302930394CDF81080059702A922
:1010F000284601F023FA22463146284601F037FB04
:101100007E20FFF772FF084B1860013841F28733E9
:10111000984202D9044BC3F8008006B0BDE8F081C4
:101120000010024000080140DC09002070B50022D8
:101130004FF40061224801F01AFB4FF4805120481F
:1011400001F00EFB04460028F7D10A20FFF772FFDA
:10115000002604E00120FFF76DFF0134E4B2172CF4
:1011600019D8174D01224FF40061284601F0FFFA0B
:1011700076000120FFF75EFF00224FF40061284651
:1011800001F0F5FA4FF48051284601F0E9FA002801
:10119000E0D00136DEE70A4C01224FF40061204620
:1011A00001F0E5FA86F400060120FFF743FF002274
:1011B0004FF40061204601F0DAFA304670BD00BFFE
:1011C0000008014008B5FFF7B1FF014B186008BDEA
:1011D000E80900200000000008B5FFF7A7FF204B3A
:1011E0001B68834234D2C01AFFF7F4F81AA3D3E97C
:1011F0000023FFF793FAFFF779FBFFF7C7FB194BC3
:101200001880184B19881848184BA3FB01239B0919
:1012100003704FF47A7202FB131292B2144BA3FBC9
:1012200002C252094270A3FB01235B09642202FB44
:1012300013139BB20F4AA2FB03C3DB088370A2FB0C
:101240000123DB0803EB8303A1EB4303C37008BD59
:10125000044B00221A80D4E70000000000187C40F4
:10126000E8090020E4090020E0090020D34D6210C5
:101270001F85EB51CDCCCCCC30B587B0104B9A69E3
:1012800042F008029A619B6903F008030193019BF5
:10129000C023029301240394049403230593094D6E
:1012A00002A9284601F04AF922468021284601F089
:1012B0005EFA22464021284601F059FA07B030BDB7
:1012C00000100240000C014070B584B080260096EA
:1012D000012501950295032303930F4C694620468F
:1012E00001F02CF92A463146204601F040FA2A4600
:1012F0004021204601F03BFA00223146204601F011
:1013000036FA0420FFF796FE00224021204601F025
:101310002EFA04B070BD00BF000C014070B584B05F
:101320008026009601250195029503230393124C14
:101330006946204601F002F900224021204601F0D2
:1013400016FA00223146204601F011FA0420FFF778
:1013500071FE2A464021204601F009FA0420FFF7D9
:1013600069FE2A463146204601F001FA0420FFF7C3
:1013700061FE04B070BD00BF000C0140F0B585B047
:1013800080270097002401940125029503230393ED
:10139000154E6946304601F0D1F82A4639463046A6
:1013A00001F0E5F92846FFF745FE2A464021304680
:1013B00001F0DDF92846FFF73DFE80210A4801F0E3
:1013C000CFF9054638B10134E4B2FA2CF5D9FFF76C
:1013D000A5FF012504E000224021034801F0C7F9E0
:1013E000284605B0F0BD00BF000C014070B584B0C8
:1013F0000446802300930123019302930323039364
:101400001A4D6946284601F099F8002240212846E5
:1014100001F0ADF900251CE000228021134801F005
:10142000A6F96400E4B20220FFF704FE0F4E012289
:101430004021304601F09BF90220FFF7FBFD00221E
:101440004021304601F093F90220FFF7F3FD01350A
:10145000EDB2072D08D814F0800FDDD001228021D5
:10146000024801F084F9DCE704B070BD000C0140D3
:101470000A4B53F83020926803EBC0039B881A4252
:1014800008D10022054B03EBC0008379934203D0BF
:10149000002070470122F5E70120704730930008D3
:1014A000F8B50646022813D903281BD0042826D0F5
:1014B00000252846F8BD0134E4B2022C0CD82046A1
:1014C000FFF7D6FF0028F6D00135EDB22746F2E748
:1014D000FF2700252C46F0E7012D1DD1B742E8D0AB
:1014E0000025E6E70020FFF7C3FF08B90025E0E785
:1014F0000120FFF7BDFF0028F8D00125D9E7012022
:10150000FFF7B6FF08B90025D3E70220FFF7B0FFC9
:101510000028F8D00125CCE70025CAE710B586B031
:10152000104B9A6942F004029A619B6903F004032C
:101530000193019B00240394012304930323059347
:101540000BE0094B03EBC4029288029202A953F804
:10155000340000F0F3FF0134E4B2022CF1D906B0FC
:1015600010BD00BF0010024030930008054AD37937
:10157000D0540133DBB2D371052B02D913460022BC
:10158000DA7170472C0A002010B50446FFF788FF77
:10159000002854D03F4B03EB04131B79042B05D8D0
:1015A0003C4800EB04140523237159E0092B05D8AE
:1015B000384800EB04140133237151E0354B03EB41
:1015C00004139B7AD3B1334B03EB04131B89002B19
:1015D00046D0304A02EB0412D28893421AD9013223
:1015E00092B22C4901EB0411CA80934238D10134E4
:1015F00004EB4404E0B2FFF7B9FF31E0254B03EB05
:10160000041301229A7204EB44001044C0B2FFF7A5
:10161000ADFFD8E71F4B03EB0413DA7A02B3194688
:101620001B7B0133DBB20B739A4219D800220A7379
:1016300004EB4404601CC0B2FFF798FF10E0154BA8
:1016400003EB04131B79052B0BD9124B03EB04138B
:1016500005221A710F4800EB04140023E380237362
:1016600010BD2BB10B4A02EB0412013B1371F1E7E1
:10167000084B03EB04139B7A012BEBD1054B03EBD7
:10168000041300229A7204EB44000230C0B2FFF748
:101690006DFFDFE7EC090020084A9379D279934285
:1016A0000AD0064AD05C0133DBB29371052B04D912
:1016B000134600229A717047002070472C0A0020C0
:1016C000034B03EB00100181C272002303737047C8
:1016D000EC09002008B5104B00229A71DA711A72D9
:1016E0000CE00E4B03EB0213C82119810221197182
:1016F00000219972D97219730132D2B2032AF0D93A
:10170000012264210020FFF7DBFF01226421104643
:10171000FFF7D6FF08BD00BF2C0A0020EC0900200F
:1017200008B5FFF7D7FFFFF7F9FE08BD10B5002495
:1017300004E02046FFF728FF0134E4B2032CF8D977
:1017400010BD38B505460C46FFF7BEFD7820FFF703
:101750004DFEFFF713FE2846FFF748FEFFF70EFE8B
:101760002046FFF743FEFFF709FEFFF7D7FD0320F2
:10177000FFF760FC38BD08B501460020FFF7E1FF28
:1017800008BD08B501464020FFF7DBFF08BD10B5D6
:101790000446A1F15000C0B2FFF7EDFF200940F070
:1017A0001000FFF7E8FF04F00E0040F00100FFF723
:1017B000E2FF10BD70B50546002608E02846FFF799
:1017C000E0FF0134E4B2832CF8D90136F6B2072EDB
:1017D0000CD8A6F15000C0B2FFF7CDFF0020FFF7F4
:1017E000CAFF1020FFF7C7FF0024ECE770BD08B563
:1017F0000020FFF7DFFF08BD08B56420FFF744FCB9
:10180000AE20FFF7B8FF2020FFF7B5FF1020FFF74D
:10181000B2FFB020FFF7AFFFC820FFF7ACFF0020FA
:10182000FFF7A9FF1020FFF7A6FF4020FFF7A3FF57
:101830008120FFF7A0FFFF20FFF79DFFA120FFF70A
:101840009AFFA620FFF797FFA820FFF794FF3F20FD
:10185000FFF791FFA420FFF78EFFD320FFF78BFF48
:101860000020FFF788FFD520FFF785FFF020FFF766
:1018700082FFD920FFF77FFF2220FFF77CFFDA20CD
:10188000FFF779FF1220FFF776FFDB20FFF773FFEA
:101890002020FFF770FF8D20FFF76DFF1420FFF76A
:1018A0006AFFAF20FFF767FFFFF7A1FF08BD000049
:1018B0002DE9F84306460F469046012B26D0022B11
:1018C0005AD0BDE8F88305EB45032D4A02EB4303EC
:1018D000185DFFF756FF0134E4B2052CF3D9063644
:1018E000F6B209F101095FFA89F918F80950002DDB
:1018F000E7D0203DEDB2842E02D90137FFB2002699
:1019000039463046FFF743FF0024E6E74FF0000971
:10191000EBE704EB05131B4AD05CFFF732FF013401
:10192000E4B2072CF5D9791CC9B23046FFF72FFF76
:10193000002408E004EB05130833124AD05CFFF7DB
:1019400020FF0134E4B2072CF4D90836F6B209F1CD
:1019500001095FFA89F918F80950002DB1D0203D2E
:10196000EDB2802E02D90137FFB20026394630464B
:10197000FFF70DFF0024D4E74FF00009EBE700BFAD
:101980000C940008349600082DE9F84F83468846E9
:1019900016469A460B9F02FB03F3DB109DF8285076
:1019A00003FB05F5ADB2FFF7F2FE4FF0000914E0BE
:1019B000785DFFF7E6FE0135ADB20134E4B2B44222
:1019C000F6D308F101085FFA88F841465846FFF758
:1019D000DEFE09F101095FFA89F9B9EBDA0F01D2EC
:1019E0000024ECE7BDE8F88F30B583B000240DE0AB
:1019F000200128301D4B0193009410231A4600212A
:101A000000F0F800FFF7C0FF0134E4B2022CEFD978
:101A1000174D0195174C23780093202310220321A2
:101A20001A20FFF7B1FF019563780093202310225D
:101A300003212A20FFF7A8FF0195A3780093202314
:101A4000102203213A20FFF79FFF0195E3780093CE
:101A50002023102203214A20FFF796FF0223064A83
:101A600005215E20FFF724FF03B030BDAC930008D2
:101A7000249C0008E00900204893000870B582B05B
:101A800000240DE0200128305A4B019300941023CC
:101A90001A46002100F0F800FFF776FF0134E4B2A7
:101AA000022CEFD9544E3368544CA4FB0323544DFD
:101AB0000195C3F3871300932023102203211A20DA
:101AC000FFF762FF3268A4FB02139B094FF47A719F
:101AD00001FB13234B4CA4FB03230195C3F34713D2
:101AE00000932023102203212A20FFF74DFF3268A4
:101AF000A4FB02135B09642101FB1323424CA4FBEA
:101B000003230195C3F3C70300932023102203216D
:101B10003A20FFF739FF3268A4FB0213DB0803EB1E
:101B20008303A2EB43030195DBB200932023102231
:101B300003214A20FFF728FF0223344A05215E20B3
:101B4000FFF7B6FEFFF7A8FD002899D0431E0B2B28
:101B500096D801A252F823F0891B0008A71B0008A1
:101B6000AF1B0008B71B0008D31B0008DB1B0008D5
:101B7000811A0008811A0008811A0008811A0008D9
:101B8000811A0008E31B0008214B1B781A4A1168D0
:101B90000B44136041F2883293427FF671AF164BCB
:101BA00001221A606CE71A4B01221A7068E7184B81
:101BB00014221A7064E7164B19780F4A13685B1ADF
:101BC0001360002B7FF45CAF134641F288321A6039
:101BD00056E70F4B01221A7052E70D4B14221A7070
:101BE0004EE7054B1A6801217E20FFF7E1F902B0AC
:101BF00070BD00BF4C930008DC090020D34D62107B
:101C0000249C00081F85EB51CDCCCCCC4893000818
:101C10000000002030B589B0002404940594069497
:101C20000794174B9A6942F020029A619A6902F070
:101C300020020192019A9A6942F008029A619A6917
:101C400002F008020292029A9A6942F004029A6132
:101C50009B6903F004030393039B0A4D224603216F
:101C6000284600F084FD0323049301230593069482
:101C70000223079304A9284600F060FC09B030BD98
:101C800000100240000C014000B583B001904FF6F7
:101C9000FF73012201A9034801F095F9019803B0EF
:101CA0005DF804FB3C0A0020014B01221A707047CA
:101CB0003B0A002072B6FEE708B50A480A4B0360EB
:101CC0004FF4E133436000238360C36003610C225F
:101CD00042618361C36101F047F900B908BDFFF7B4
:101CE000E9FF00BF3C0A00200038014000B591B078
:101CF0002822002106A801F023FB00230193029370
:101D0000039304930593012206924FF480330793C3
:101D10000A9202220D920E934FF4E0130F9306A83D
:101D200000F04AFD80B90F230193022102910023A4
:101D300003934FF480620492059301A800F07AFFA8
:101D400020B911B05DF804FBFFF7B4FFFFF7B2FF55
:101D500010B500F0A3F9FFF7C9FFFFF7A1F9FFF7EE
:101D600049F9FFF7DDFCFFF787FAFFF745FDFFF7BD
:101D7000EDF8FFF74FFFFFF79FFFFFF723FA4FF450
:101D8000FA60FFF781F9FFF701F9FFF71BFA032269
:101D90002049214801F083F915E0204B00221A70F8
:101DA00003221C491C4801F07AF9FFF70BFA0EE0F8
:101DB000FFF7ECF819E00121194800F0DEFCFFF70D
:101DC00001FAFFF7E3F8154B1B78002BE5D1FFF77D
:101DD000ADF9FFF701FA134C2188134801F002FB1B
:101DE0002288124B1B689A42E2D8FFF7FDFD1420AF
:101DF000FFF74AF9FFF750FC0028E4D00A28DAD0B0
:101E00000C28E0D10221064800F0B7FCFFF736FEAF
:101E1000D9E700BF380A00203C0A00203B0A002016
:101E2000000C0140E4090020A49E0008DC09002009
:101E300082B00E4B9A6942F001029A619A6902F0EF
:101E400001020092009ADA6942F08052DA61DB699D
:101E500003F080530193019B054A536823F0E0632C
:101E600043F08063536002B0704700BF001002402F
:101E70000000014070B586B00023029303930493E1
:101E8000059302681B4B9A4201D006B070BD03F562
:101E900058439A6942F480429A619A6902F48042F6
:101EA0000092009A9A6942F004029A619B6903F0D9
:101EB00004030193019B4FF40073029302250395E1
:101EC000032305930C4E02A9304600F037FB4FF474
:101ED0008063029300240394049402A9304600F026
:101EE0002DFB22462946252000F00EF9252000F082
:101EF00043F9CAE70038014000080140FEE7FEE769
:101F0000FEE7FEE7FEE770477047704708B5084AEE
:101F100013780133DBB213700A2B02D800F0D0F82B
:101F200008BDFFF703FC024B00221A70F6E700BF62
:101F30007C0A002008B5024801F03CF908BD00BF4A
:101F40003C0A00200120704708B501F0CFF91623A4
:101F500003604FF0FF3008BD08B54FF0FF31FFF7C9
:101F6000F3FFFEE770B50C461646002506E0AFF31A
:101F70000080214601F8010B01350C46B542F6DB25
:101F8000304670BD70B50C461646002504E014F8C6
:101F9000010BFFF779FE0135B542F8DB304670BD25
:101FA0004FF0FF3070474FF400534B6000207047F4
:101FB000012070470020704710B503460C4A0D49B8
:101FC0000D48006840B10C4800680344521A93421F
:101FD00006D8094A136010BD0748084C0460F2E7B0
:101FE00001F084F90C2303604FF0FF30F3E700BFEA
:101FF0000050002000040000800A0020F00A0020A9
:1020000070470000002103E00B4B5B584350043144
:102010000A480B4B42189A42F6D30A4A02E00023C0
:1020200042F8043B084B9A42F9D3FFF7E9FF01F06D
:1020300063F9FFF78DFE7047FCA200080000002046
:10204000C0090020C0090020F00A0020FEE70000BF
:1020500010B504460E4B18784FF47A73B3FBF0F3C7
:102060000C4A1068B0FBF3F000F094F868B90F2C3C
:1020700001D901200AE0002221464FF0FF3000F094
:1020800043F8054B1C60002000E0012010BD00BF9C
:1020900008000020040000200C00002008B5074ABA
:1020A000136843F010031360032000F01BF80020B6
:1020B000FFF7CEFFFFF7BCFE002008BD0020024066
:1020C000034A1168034B1B780B441360704700BF31
:1020D000840A002008000020014B1868704700BFE8
:1020E000840A0020074AD36823F4E0631B041B0C16
:1020F000000200F4E060034343F0BF6343F40033A5
:10210000D360704700ED00E000B5194BDB68C3F306
:102110000223C3F1070CBCF1040F28BF4FF0040CDD
:1021200003F1040EBEF1060F18D9033B4FF0FF3E3A
:102130000EFA0CFC21EA0C0199400EFA03F322EA94
:102140000303194300280BDB0901C9B200F1604009
:1021500000F5614080F800135DF804FB0023E5E71B
:1021600000F00F000901C9B2024B1954F4E700BF97
:1021700000ED00E014ED00E0002807DB00F01F0296
:10218000400901239340024A42F82030704700BFC3
:1021900000E100E00138B0F1807F0BD24FF0E02386
:1021A0005861054AF02182F8231000209861072227
:1021B0001A6170470120704700ED00E0042806D046
:1021C0004FF0E022136923F00403136170474FF0CE
:1021D000E022136943F004031361704708B590F8D7
:1021E0002130022B03D004238363012008BD026841
:1021F000136823F00E0313600268136823F00103D1
:1022000013600368194A934214D0143293421FD0CA
:10221000143293421ED0143293421ED01432934291
:102220001ED01432934202D04FF0807203E04FF47C
:10223000801200E001220E4B5A60012380F8213009
:10224000002380F82030436B6BB198470020CDE726
:102250001022F0E74FF48072EDE74FF48052EAE786
:102260004FF48032E7E70020C0E700BF08000240DB
:1022700000000240044B0022DA61044A136943F073
:102280000103136101807047880A0020002002408A
:10229000194BDB6813F0100305D0184AD36943F0DB
:1022A0000203D3611023144AD26812F0040F06D03F
:1022B0001249CA6942F00102CA6143F004030E4A9E
:1022C000D26912F0010F09D00C49CA6942F0040228
:1022D000CA610949CA6922F00102CA6140F20112C9
:1022E000934202D0044AD3607047034AD36923F073
:1022F0000103D361704700BF00200240880A00201C
:102300000A4B1B6913F0800F0BD0084B084A5A6028
:1023100002F188325A601B6913F0800F03D100204C
:102320007047002070470120704700BF0020024026
:1023300023016745034A136943F0800313610020BA
:10234000704700BF0020024038B50446FFF7C4FEC6
:102350000546164BDB6813F0010F0AD0B4F1FF3FBE
:10236000F7D024B1FFF7B8FE401BA042F1D90320FB
:102370001BE00E4BDB6813F0200F02D00B4B20222A
:10238000DA600A4BDB6813F0100F0BD1074BDB69E7
:1023900013F0010F06D1054BDB6813F0040F01D1D8
:1023A000002002E0FFF774FF012038BD002002404A
:1023B0002DE9F8431E46244B1B7E012B41D00446D9
:1023C0000F469046204B01221A764CF25030FFF710
:1023D000BBFF034678BB012C08D0022C03D04FF082
:1023E00004091C4607E04FF00209FAE74FF0010923
:1023F000F7E70134E4B24C451DD22101C1F12002BE
:10240000A1F1200328FA01F106FA02F2114326FA9B
:1024100003F3194389B207EB4400FFF72BFF4CF29B
:102420005030FFF791FF094B1D6925F001051D6133
:1024300003460028DDD0044A002111761846BDE885
:10244000F8830223FAE700BF880A00200020024038
:10245000064B0022DA61064B1A6942F004021A6147
:102460001A6942F040021A61704700BF880A0020D2
:1024700000200240064B0022DA61064B1A6942F046
:1024800002021A6158611A6942F040021A617047EB
:10249000880A002000200240264B1B7E012B46D0DC
:1024A00070B505460E46234B01221A760368022BAF
:1024B00020D04CF25030FFF747FF90BB4FF0FF3376
:1024C0003360AC680121EA68AB6803EB8223A34266
:1024D00028D92046FFF7CEFF4CF25030FFF734FFEB
:1024E000154A136923F0020313610146B8B904F5D4
:1024F0008064E8E74CF25030FFF726FF08B1012175
:1025000010E00120FFF7A4FF4CF25030FFF71CFF52
:102510000146094A136923F00403136102E03460A1
:1025200000E00121034B00221A76084670BD02210B
:1025300008467047880A00200020024070B582B02B
:102540000024A446A6E0804DAA4210D007D97F4DB2
:10255000AA420CD005F58035AA4208D013E0A5F5B3
:102560008015AA4203D005F57025AA4207D18A68D2
:10257000002A58D0012A51D04361082403E0A5F570
:102580008015AA42F3D0BEF1FF0F4ED80646BEF129
:10259000FF0F4CD84FEA8C0233680F25954023EA91
:1025A000050304FA02F2134333604B6813F0805FB3
:1025B0006ED0674B9A6942F001029A619B6903F001
:1025C00001030193019B4FEA9C02951C614B53F858
:1025D00025600CF003039D000F23AB4026EA0306A1
:1025E0005D4B984229D003F58063984200F08E80BD
:1025F00003F58063984200F08B8003F58063984276
:1026000019D004231AE0CC68BDE7CC680434BAE7DB
:10261000CC680834B7E7CC680C34B4E7036108240D
:10262000B1E70024AFE70424ADE7061DAFE7ACF146
:1026300008029200B0E7032300E00023AB403343DD
:102640000232444D45F822304B6813F4803F61D08C
:10265000424A136843EA0E0313604B6813F4003FC9
:102660005ED03E4A536843EA0E0353604B6813F44E
:10267000801F5BD0394A936843EA0E0393604B682E
:1026800013F4001F58D0354AD36843EA0E03D360D1
:102690000CF1010C0A6832FA0CF353D0012303FA4F
:1026A0000CF302EA030E33EA0202F1D14A68122A5D
:1026B0003FF649AF122A3FF666AF01A555F822F062
:1026C0006F250008072600081126000823260008A9
:1026D000872500088725000887250008872500082A
:1026E000872500088725000887250008872500081A
:1026F000872500088725000887250008872500080A
:10270000872500080B26000817260008012395E7F7
:10271000022393E7114A136823EA0E0313609CE730
:102720000E4A536823EA0E0353609FE70B4A9368EF
:1027300023EA0E039360A2E7084AD36823EA0E0354
:10274000D360A5E702B070BD000022100000311078
:102750000010024000000140000801400004014058
:102760008368194201D001207047002070470AB1E8
:1027700001617047090401617047C36801EA0302FF
:1027800021EA030141EA02410161704782B0084B2E
:102790001B68084AA2FB03235B0A00FB03F30193B7
:1027A00000BF019B5A1E0192002BF9D102B0704765
:1027B00004000020D34D6210002800F0F18170B5B4
:1027C00082B00446036813F0010F2CD0994B5B686C
:1027D00003F00C03042B1DD0964B5B6803F00C0335
:1027E000082B12D06368B3F5803F41D0002B55D140
:1027F00003F1804303F504331A6822F480321A602F
:102800001A6822F480221A6037E08A4B5B6813F45E
:10281000803FE7D0874B1B6813F4003F03D0636809
:10282000002B00F0BF81236813F0020F75D0814B9D
:102830005B6813F00C0F5FD07E4B5B6803F00C03FA
:10284000082B54D02369002B00F08A807A4B012298
:102850001A60FFF741FC0546764B1B6813F0020F28
:1028600075D1FFF739FC401B0228F5D903209EE102
:10287000704A136843F480331360636843B3FFF70F
:102880002BFC05466B4B1B6813F4003FCBD1FFF7C5
:1028900023FC401B6428F5D9032088E1B3F5A02F61
:1028A00009D0644B1A6822F480321A601A6822F444
:1028B00080221A60E1E703F18043A3F53C331A68F4
:1028C00042F480221A601A6842F480321A60D4E717
:1028D000FFF702FC0546574B1B6813F4003FA2D0DC
:1028E000FFF7FAFB401B6428F5D903205FE1514B49
:1028F0005B6813F4803FA5D14E4B1B6813F0020FA9
:1029000003D02369012B40F04F814A4A136823F01A
:10291000F803616943EAC1031360236813F0080FE9
:1029200033D0A369002B5CD0434B0122C3F8802431
:10293000FFF7D2FB05463F4B5B6A13F0020F21D134
:10294000FFF7CAFB401B0228F5D903202FE1394AC3
:10295000136823F0F803616943EAC1031360DCE7FD
:10296000354B00221A60FFF7B7FB0546314B1B6859
:1029700013F0020FD1D0FFF7AFFB401B0228F5D9AF
:10298000032014E10120FFF701FF236813F0040F77
:1029900000F09680274BDB6913F0805F34D1254B24
:1029A000DA6942F08052DA61DB6903F08053019307
:1029B000019B0125214B1B6813F4807F26D0E3681F
:1029C000012B3DD0002B53D103F1804303F5043399
:1029D0001A6A22F001021A621A6A22F004021A62CA
:1029E00033E0154B0022C3F88024FFF775FB054642
:1029F000104B5B6A13F0020FC7D0FFF76DFB401B53
:102A00000228F5D90320D2E00025D3E70B4A13684A
:102A100043F480731360FFF75FFB0646074B1B68A8
:102A200013F4807FCBD1FFF757FB801B6428F5D9C7
:102A30000320BCE000100240000042420070004051
:102A40005F4A136A43F001031362E36833B3FFF78D
:102A500043FB06465A4B1B6A13F0020F2FD1FFF7B8
:102A60003BFB801B41F288339842F3D903209EE060
:102A7000052B09D0524B1A6A22F001021A621A6A17
:102A800022F004021A62E0E74D4B1A6A42F0040297
:102A90001A621A6A42F001021A62D6E7FFF71CFBBB
:102AA0000646474B1B6A13F0020F08D0FFF714FBD2
:102AB000801B41F288339842F3D9032077E0E5B9CF
:102AC000E369002B72D03E4A526802F00C02082AD9
:102AD00056D0022B17D03B4B00221A66FFF7FCFAA8
:102AE0000446374B1B6813F0007F47D0FFF7F4FA1A
:102AF000001B0228F5D9032059E0314AD36923F09D
:102B00008053D361DCE72F4B00221A66FFF7E4FA0B
:102B100005462B4B1B6813F0007F06D0FFF7DCFA4D
:102B2000401B0228F5D9032041E0236AB3F5803F1A
:102B30001AD023494B6823F47413226A606A024353
:102B400013434B601F4B01221A66FFF7C5FA044678
:102B50001B4B1B6813F0007F0ED1FFF7BDFA001B63
:102B60000228F5D9032022E0154A536823F40033E4
:102B7000A1680B435360DCE7002018E0002016E05A
:102B8000012B16D00E4B5B6803F48031226A914210
:102B900011D103F47013626A93420ED1002006E053
:102BA00001207047012002E0012000E0002002B077
:102BB00070BD0120FBE70120F9E70120F7E700BF26
:102BC000001002400000424286B0164B0FCB0DF1C0
:102BD000180C0CE90F0040F20123ADF80430124B41
:102BE0005B6803F00C02082A02D0104806B0704758
:102BF000C3F38342624412F8100C13F4803F0CD0EC
:102C0000094B5B68C3F34043634413F8143C074A21
:102C100002FB00F0B0FBF3F0E8E7054B03FB00F02C
:102C2000E4E700BFD49E00080010024000127A00C2
:102C300000093D00002800F0A08070B50D46044654
:102C4000524B1B6803F007038B420BD24F4A1368A9
:102C500023F007030B431360136803F007038B4251
:102C600040F08D80236813F0020F17D013F0040F8B
:102C700004D0474A536843F4E0635360236813F079
:102C8000080F04D0424A536843F460535360404AEB
:102C9000536823F0F003A1680B435360236813F0DB
:102CA000010F31D06368012B20D0022B25D0384A88
:102CB000126812F0020F64D035494A6822F003020C
:102CC00013434B60FFF708FA0646314B5B6803F08D
:102CD0000C036268B3EB820F16D0FFF7FDF9801B7F
:102CE00041F288339842F0D9032045E0284A12681F
:102CF00012F4003FE0D101203EE0254A126812F0B4
:102D0000007FD9D1012037E0204B1B6803F0070377
:102D1000AB420AD91D4A136823F007032B43136003
:102D2000136803F00703AB422DD1236813F0040F9F
:102D300006D0174A536823F4E063E1680B435360FD
:102D4000236813F0080F07D0114A536823F4605327
:102D5000216943EAC1035360FFF736FF0C4B5B6800
:102D6000C3F303130B4AD35CD8400B4B18600B4BD7
:102D70001868FFF76DF9002070BD01207047012031
:102D8000FAE70120F8E70120F6E700BF0020024043
:102D900000100240BC9E0008040000200C0000202F
:102DA000014B1868704700BF0400002008B5FFF70A
:102DB000F7FF044B5B68C3F30223034AD35CD8409C
:102DC00008BD00BF00100240CC9E000808B5FFF708
:102DD000E7FF044B5B68C3F3C223034AD35CD840CC
:102DE00008BD00BF00100240CC9E00080268D368F6
:102DF00023F49073D3600268536923F00103536195
:102E0000202380F83A30704790F83930DBB2212B1C
:102E100001D0022070478368B3F5805F17D0036A42
:102E20005A1C02621A7803685A60C38C9BB2013B39
:102E30009BB2C3844BB90268D36823F08003D3608C
:102E40000268D36843F04003D360002070470369F1
:102E5000002BE4D1036A1B880268C3F308035360A4
:102E6000036A02330362E0E710B50446026813699F
:102E700023F44053C1680B43136183680269134311
:102E800042691A430168CB6823F4B05323F00C0362
:102E90001343CB600268536923F4407381690B4389
:102EA00053610268134B9A4220D0FFF77FFF02461E
:102EB00002EB820202EB820263689B00B2FBF3F238
:102EC0000D48A0FB02314909642303FB11231B01B8
:102ED0003233A0FB03235B0903F0F00202EB011283
:102EE00003F00F03216813448B6010BDFFF76EFFE2
:102EF0000246DDE7003801401F85EB512DE9F8431C
:102F000005460F4616469946DDF820802C68246851
:102F100037EA04030CBF4FF0010C4FF0000CB4452E
:102F20001FD1B8F1FF3FF1D0B8F1000F05D0FFF786
:102F3000D3F8A0EB09004045E8D92A68D36823F408
:102F4000D073D3602A68536923F0010353612023AF
:102F500085F8393085F83A30002385F83830032079
:102F600000E00020BDE8F88358B310B5044690F89F
:102F700039300BB3242384F839302268D36823F422
:102F80000053D3602046FFF76FFF2268136923F4D4
:102F9000904313612268536923F02A035361226826
:102FA000D36843F40053D3600020E063202384F807
:102FB000393084F83A3010BD80F83830FEF75AFFC7
:102FC000D8E7012070472DE9F04182B01E4690F805
:102FD0003930DBB2202B54D104460D4690460029EF
:102FE00053D0002A53D090F83830012B51D0012310
:102FF00080F838300023C363212380F83930FFF78D
:103000006BF80746A4F82480A4F82680A368B3F5DB
:10301000805F05D04FF00008002384F8383012E0BC
:10302000236913B14FF00008F6E7A8460025F3E73F
:1030300038F8023B2268C3F308035360E28C92B273
:10304000013A92B2E284E38C9BB273B100963B46A4
:10305000002280212046FFF751FFE0B9002DE7D084
:1030600015F8012B23685A60E8E700963B460022DA
:1030700040212046FFF742FF78B9202384F83930F9
:1030800000E0022002B0BDE8F0810120FAE7012053
:10309000F8E70220F6E70320F4E70320F2E790F8D0
:1030A0003A30DBB2202B23D121B32AB390F8383049
:1030B000012B23D0012380F8383081628285C285BC
:1030C0000023C363222280F83A2080F83830016858
:1030D000CA6842F48072CA6001684A6942F001021B
:1030E0004A610168CA6842F02002CA601846704707
:1030F000022070470120704701207047022070476E
:10310000704708B50168CA6822F04002CA602022F0
:1031100080F83920FFF7F4FF002008BD08B590F8CB
:103120003A30DBB2222B41D18368B3F5805F14D0F3
:10313000826AB3F5805F02D0E3B90369D3B903684B
:103140005B681370836A01338362C38D9BB2013B5A
:103150009BB2C385A3B1002008BD0269002AE7D154
:10316000826A03685B68C3F308031380836A0233CF
:103170008362EAE703685B6803F07F031370E1E7AB
:103180000268D36823F02003D3600268D36823F475
:103190008073D3600268536923F0010353612023D5
:1031A00080F83A30FEF780FD0020D5E70220D3E713
:1031B0007047000010B5044602681368D168526970
:1031C00013F00F0005D113F0200F02D011F0200FE3
:1031D00013D128B112F0010213D111F4907F10D154
:1031E00013F0800F02D011F0800F6CD113F0400F5C
:1031F00002D011F0400F6AD110BD2046FFF78EFFBC
:10320000FAE713F0010F06D011F4807F03D0E06BD2
:1032100040F00100E06313F0040F04D01AB1E06B3A
:1032200040F00200E06313F0020F04D01AB1E06B2B
:1032300040F00400E06313F0080F07D011F0200FF6
:1032400000D11AB1E26B42F00802E263E26B002A9D
:10325000D2D013F0200F02D011F0200F21D123681B
:103260005B6903F04003E26B12F0080F00D123B357
:103270002046FFF7BBFD23685A6912F0400F18D0B3
:103280005A6922F040025A61636B73B1124A5A6361
:10329000606BFEF7A3FF0028AED0606B436B9847CE
:1032A000AAE72046FFF73AFFD9E72046FFF780FF5D
:1032B000A2E72046FFF77CFF9EE72046FFF778FF56
:1032C0000023E36398E72046FFF79EFD94E720463E
:1032D000FFF717FF90E700BFDD32000808B5406A2E
:1032E0000023C385C384FFF763FF08BD014B186843
:1032F000704700BF1000002070B50D4E0D4D761BBD
:10330000B61006D0002455F8043B01349847A64275
:10331000F9D1094E094D05F0FFFF761BB61006D016
:10332000002455F8043B01349847A642F9D170BDFA
:10333000F0A20008F0A20008F8A20008F0A200081D
:10334000830730B548D0541E002A3FD00346CAB286
:1033500001E0013C3AD303F8012B9D07F9D1032C7E
:103360002DD9CDB245EA05250F2C45EA054536D9BC
:10337000A4F1100222F00F0C03F1200EE6444FEAF4
:10338000121C03F1100242E9045542E902551032C1
:103390007245F8D10CF1010214F00C0F03EB02128C
:1033A00004F00F0C13D0ACF1040323F00303043337
:1033B000134442F8045B9342FBD10CF003042CB19C
:1033C000CAB21C4403F8012B9C42FBD130BD6446B9
:1033D0001346002CF4D1F9E703461446BFE71A461A
:1033E000A446E0E70FB400B5074A83B004AB106809
:1033F00053F8042B8168019300F008F803B05DF8DE
:1034000004EB04B0704700BF100000202DE9F04F1E
:10341000D5B01C46914607910546099003F03CF94A
:1034200002680E941046179204F0E6F816901DB14B
:10343000AB6B002B00F01D82079A536EDD0740F145
:103440002D81B2F90C2091B28F0409D4079B42F46C
:1034500000529A8191B21A465B6E23F40053536670
:103460000E0740F1C080079B1B69002B00F0BB805A
:1034700001F01A030A2B00F0C48000242BAB224673
:1034800098464D46CDE92944289312940023002400
:10349000CDE914342B78CDE91922CDE91B221892FD
:1034A0000B92002B00F08F81AA4604E01AF8013F2E
:1034B000002B00F0BB80252BF8D1BAEB050640F0BD
:1034C000B9809AF80030002B00F07D8100234FF086
:1034D000FF324FF02B0920241F469AF80160089212
:1034E0000AF1010A8DF883300A930AF1010AA6F164
:1034F00020035A2B00F2E180DFE813F00503DF0020
:10350000DF000003DF00DF00DF00DE02DF00DF009E
:103510006A006E02DF0055027802DF0073025B0072
:103520005B005B005B005B005B005B005B005B00C3
:10353000DF00DF00DF00DF00DF00DF00DF006C0105
:10354000DF00EA01C4016C016C016C01DF00DF00E7
:10355000DF00DF00D002DF00DF002302DF00DF003A
:10356000DF00F801DF009202DF00DF008707DF00E5
:10357000DF00DF00DF00DF00DF00DF00DF006C01C5
:10358000DF00EA01C6016C016C016C01B602C601E4
:10359000BF01DF00C302DF005A022502A402BF01FF
:1035A000DF00F80172008407DF00DF006507DF003D
:1035B00072000022A6F130031AF8016B02EB8202BE
:1035C00003EB4202A6F13003092BF5D90A928EE7EC
:1035D0000E9B53F8042B002A0A920E93C0F2E0814E
:1035E0009AF8006081E7079D0998294601F0FCFCE4
:1035F000002841F04D83A98901F01A030A2B7FF4BA
:103600003CAF079AB2F90E30002BFFF636AF536E7F
:10361000D80702D4890541F1488123464A460799D3
:10362000099855B0BDE8F04F01F09CBCBAEB050617
:1036300000F0C9802A9BC8E9005633442A93299B8D
:103640000133072B299305DC08F108080B9B334451
:103650000B9336E70799099828AA04F06BF880B90C
:103660000DF1AC08F2E70799099828AA04F062F86E
:10367000002800F099800D9B1BB11946099802F0B3
:10368000E7FE079A536ED90740F1E88093895B06FD
:1036900001F10A830B9855B0BDE8F08F079BB3F991
:1036A0000C20900591B23FF5CFAE1D46986D02F00B
:1036B000FBFFB5F90C2091B2C6E6002E00F0838026
:1036C000012300228DF8EC6006933BAD8DF883203A
:1036D0000C930D9208920F921392109217F002031E
:1036E00002D006990231069117F0840B07D10A998E
:1036F0000698A1EB0009B9F1000F00F390832A9C12
:1037000082B10122C8F80420299A013401320DF156
:103710008301072A2A942992C8F8001000F3D8835D
:1037200008F108087BB10223C8F80430299B023451
:10373000013321AA072B2A942993C8F8002000F30B
:10374000D58308F10808BBF1800F00F08882089B40
:103750000C9AA3EB020BBBF1000F00F3CB82FB052D
:1037600000F11F820C9BC8F800501C44C8F80430BC
:10377000299B2A940133072B299300F3448308F1F2
:103780000808780705D50A9B069A9D1A002D00F3B4
:10379000B983DDE90A2306998A42ACBF9B185B18FE
:1037A0000B93002C7FF45FAF002329930D9B1BB17B
:1037B0000D99099802F04CFE55460DF1AC082B7896
:1037C000002B7FF471AE2A9B002B41F01082002366
:1037D000299356E70E9B073323F00702F2E80234E1
:1037E000CDE91434DDE9143424F000449946184638
:1037F0000E9221464FF0FF32AB4BFDF7E5F9002862
:1038000040F01885484621464FF0FF32A64BFDF7A1
:10381000BDF9002840F00E85DDE9140100220023E7
:10382000FDF7AAF9002840F065879DF88320002164
:1038300003209E4D9E4B27F080070D910690472E4A
:10384000C8BF1D4608910C900F9113911091002A4A
:103850003FF444AF069B013306933FE7079B9B89E8
:103860009A053FF514AF079CA06D02F01FFFA389D6
:103870000DE7099802F0F4FCDEE59AF8006047F0E5
:10388000200732E647F01007BA060E9B40F16E841F
:10389000073323F007031A465B6852F8084B994632
:1038A0000E92002BC0F26F84089B013300F0FB8264
:1038B00054EA090327F0800B40F0F682089B002BA6
:1038C00040F0F7825F46002354AD08930C933DE12E
:1038D000012000220E9B069053F8041B3BAD8DF88F
:1038E00083208DF8EC100E930C90F2E64FF0000957
:1038F0000E9C089B54F8045B8DF88390002D00F01B
:10390000A1855A1C00F0A5861A464946284603F0B0
:10391000EBF90D90002801F050810D9B9DF883205C
:103920005B1B0C9323EAE373CDF820900E9406936F
:10393000CDF83490CDF83C90CDF84C90CDF8409037
:1039400085E747F0100717F0200900F0F2830E9B7F
:10395000073323F00703D3F8049053F8084B0E9372
:10396000002327F4806B00228DF88320089A511CD5
:1039700000F0D48054EA09012BF0800740F0CD809C
:10398000002A40F00486002B9DD11BF001030C930C
:1039900000F0308430230DF24F158DF84F31D5E013
:1039A0000A9B5B420A939AF8006047F004079CE583
:1039B000BD0600F1FD84FC0600F1EE85780600F1FD
:1039C000B286B90540F1E8850E9B0B9953F8042B9C
:1039D000554611700E93F2E69AF800608DF88390C8
:1039E00083E59AF8006047F080077EE5524612F8BA
:1039F000016B2A2E01F08D82A6F13003092B92462D
:103A000098BF002201F2E5801AF8016B02EB8202F6
:103A100003EB4202A6F13003092BF5D9089266E5C3
:103A200047F0100B1BF0200900F091830E9B073329
:103A300023F007031A4652F8084BD3F804900E926D
:103A4000012390E7302278260E9B8DF8842053F8CE
:103A5000044B184A0E934FF00009022347F0020B63
:103A60008DF8856018927EE79AF80060682E03BF93
:103A70009AF8016047F400770AF1010A47F040071D
:103A800033E59AF800606C2E03BF9AF8016047F0A6
:103A900020070AF1010A47F0100726E59AF80060AE
:103AA00047F0080721E500BFFFFFEF7FEC9E00080D
:103AB000F09E0008FC9E0008099E304602F0ECFDD6
:103AC000436818461B9303F097FD034630461C934A
:103AD0001E4602F0E1FD83681993002E3FF480AD8D
:103AE000199B002B3FF47CAD199B1B78002B3FF4F6
:103AF00077AD9AF8006047F48067F6E49AF80060C2
:103B000047F00107F1E49DF88330002B7FF468ADA6
:103B10009AF800608DF88340E7E4BB46012B00F083
:103B2000C381022B54AD1FD1189A04F00F03D35C4C
:103B3000240944EA09744FEA191905F8013D54EAC9
:103B40000903F2D15F4654AB5B1B0C93089A0C99A6
:103B500000238A42B8BF0A460D9306920F939DF840
:103B600083201393109372E604F00703E40844EAF9
:103B700049744FEAD909303354EA09012A4605F855
:103B8000013DF1D11BF0010FDCD0302BDAD0302316
:103B9000023A05F8013C54AB9B1A5F4615460C935C
:103BA000D4E7652E40F3E980DDE91401002200230B
:103BB000FCF7D8FF002800F0E1810123C8F80430A9
:103BC000299BC04A01330134072B2A942993C8F852
:103BD000002000F3BF8408F10808229B129A934248
:103BE00080F2DC82169B179A1C44C8E90023299BAB
:103BF0002A940133072B299300F3178408F108084E
:103C0000129B5D1E002D7FF7BCAD102D41F35D8131
:103C1000DFF8B492224649461026B946299B0F4642
:103C2000DDF824B0079C05E008F10808103D102DD0
:103C300040F39D8401331032072BC8E90076CDE9AB
:103C40002932F1DD2146584628AA03F073FD0028E9
:103C50007FF411ADDDE929320DF1AC08E6E70A9BEE
:103C6000069AA3EB020BBBF1000F7FF770ADBBF11F
:103C7000100F41F35280DFF85092204641464C46E7
:103C8000A8461023299A079DDDF8249006E0ABF1A1
:103C9000100BBBF1100F01F1080119DD01321030DA
:103CA000072AC1E90043CDE92920F0DD294648462D
:103CB00028AA03F03FFD00287FF4DDACDDE92920D0
:103CC000ABF1100BBBF1100F4FF010032BA9E5DC8B
:103CD0004546A1468846044601325C44072ACDE9A0
:103CE0002924C8F80090C8F804B000F3918308F1C3
:103CF00008082CE5BBF1100F40F3E384DFF8C8910E
:103D0000204641464C46A8461023299A079DDDF8D7
:103D1000249006E0ABF1100BBBF1100F01F108018C
:103D200019DD01321030072AC1E90043CDE929200D
:103D3000F0DD2946484628AA03F0FCFC00287FF461
:103D40009AACDDE92920ABF1100BBBF1100F4FF05D
:103D500010032BA9E5DC4546A146884604460132FE
:103D60005C44072ACDE92924C8F80090C8F804B0BB
:103D700000F3D28108F10808F1E4129B012B40F313
:103D800082810123299E01341E44072EC8F8005069
:103D90002A94C8F80430299600F36C8308F10808C7
:103DA000169B0136179A1C44072EC8E90023CDE95B
:103DB000296400F36C8308F108080022DDE914018E
:103DC0000023FCF7CFFE002840F07A81129B0136D9
:103DD000013B01351C44072EC8F800502996C8F84D
:103DE00004302A9400F35F8108F108081A9B013619
:103DF0001C44C8F80430072E24ABCDE92964C8F868
:103E000000307FF7BCAC0799099828AA03F092FC10
:103E100000287FF430AC2A9C0DF1AC08B1E4B9F174
:103E2000100F40F3C686DDE929214046CDE91D3655
:103E3000B84610244F46079EA946099D04E0103F4E
:103E4000102F00F1080016DD0132204B1031072A37
:103E5000C0E90034CDE92921F1DD3146284628AA00
:103E600003F068FC00287FF406ACDDE92921103F4F
:103E7000102F2BA8E8DC4D46DDE91D36B946474634
:103E8000804609EB010401321049072ACDE92924B3
:103E9000C8F80490C8F8001000F340839DF8832010
:103EA00008F108082CE4BB460A2C79F1000380F0E5
:103EB000FB82012330345F468DF84F410C930DF2A5
:103EC0004F1543E62C9F0008409F0008309F0008D4
:103ED0000799099828AA1D9303F02CFC00287FF469
:103EE000CAAB2A9C1D9B0DF1AC081BE407990998ED
:103EF00028AA03F01FFC00287FF4BDAB2A9C0DF11B
:103F0000AC0820E4102D40F3BE861026299B099FA3
:103F1000DDF81C9004E0103D102D08F1080817DDB5
:103F20000133BA4A1034072BC8E90026CDE92934F9
:103F3000F1DD4946384628AA03F0FCFB00287FF44F
:103F40009AABDDE92934103D102D0DF1AC08E7DC0A
:103F50000133AE4A2C44072BCDE92934C8F804506C
:103F6000C8F800207FF715AC0799099828AA03F034
:103F7000E1FB00287FF47FAB2A9C0AE42299002908
:103F800040F31081DDF84090129B9945A8BF9946F7
:103F9000B9F1000F0BDD299B4C440133072BC8E915
:103FA00000592A94299300F3818508F10808109E8E
:103FB000B9F1000FA8BFA6EB0906002E00F3F582A9
:103FC000DDF840B07905AB4400F1AC84229B129A35
:103FD000934202DBFA0740F19283169A1799144430
:103FE000C8E90012299A2A940132072A299200F37B
:103FF000A88508F10808129AAE18A6EB0B06D51A88
:10400000AE42A8BF2E46002E0DDD299B344401335D
:10401000072BC8F800B0C8F804602A94299300F36D
:10402000FC8508F10808002EA8BFAD1B002D7FF706
:10403000A8AB102D40F34987DFF8D49122464946BA
:104040001026B946299B0F46DDF824B0079C05E0F1
:1040500008F10808103D102D40F389820133103219
:10406000072BC8E90076CDE92932F1DD2146584613
:1040700028AA03F05FFB00287FF4FDAADDE92932BE
:104080000DF1AC08E6E7FE073FF57BAE0123299E64
:1040900001341E44072EC8F800502A94C8F8043092
:1040A00029967FF7A1AE0799099828AA03F042FB49
:1040B00000287FF4E0AADDE929640DF1AC0895E65B
:1040C000129B5D1E002D7FF791AE102D40F31987D6
:1040D000224608974FF0100BDFF83491099C079F98
:1040E00005E008F10808103D102D40F3C7820136A5
:1040F0001032072EC8E9009BCDE92962F1DD39466F
:10410000204628AA03F016FB00287FF4B4AADDE9B4
:1041100029620DF1AC08E6E70799099828AA03F08F
:1041200009FB00287FF4A7AA2A9C0DF1AC08FFF731
:1041300016BB17F0100377D117F0400200F0AC82E5
:104140000E9A994652F8044B0E92A4B208E41BF062
:1041500010030E9A54D11BF040014DD052F8044B7D
:1041600099460E920123A4B2FFF7FDBB53F8044B0E
:104170000E93FB0653D47D064ED544F3C0394B460F
:1041800024B2FFF78EBB2D2364428DF88330BB46EB
:104190004FF0010369EB4909FFF7E8BBF8077FF52A
:1041A000F0AA1FE50123C8F80430299B194A0133FE
:1041B0000134072B2A942993C8F8002000F368845F
:1041C00008F10808002940F02582129A07F001033F
:1041D00013433FF4D6AA169B1799E218C8E90013B7
:1041E000299B2A920133072B299300F3508308F16E
:1041F000080820E254ADA9E41BF4007940F0A08245
:1042000052F8044B01230E92FFF7ADBB309F00081C
:10421000409F00082C9F0008B80500F179824FEA02
:10422000E4794B46FFF73DBB0E9B53F8044B0E93CE
:10423000FFF796BBDDE9140102460B46FCF7C4FC10
:10424000002840F0F785612E00F06C85412E00F0CB
:104250007F82089B013300F0948526F02003472BD2
:10426000069300F07B85DDE9141247F480730F9309
:104270001346002BC0F2F4850C9300238B461D934C
:104280000D93069B462B00F02B84452B00F01485E4
:1042900008990C9B01910221009126A9049123A960
:1042A000039122A95A460998029100F0ADFF069B9E
:1042B0000546472B40F0448617F0010FB9460F9F83
:1042C00040F0F784269B5B1B1293069B472B00F064
:1042D000F182069B462B00F04284229B1093109B98
:1042E000069A013B412A229300F08A850021F2B20E
:1042F000002B8DF89020B6BF2D222B22109B8DF81D
:104300009120B8BFC3F10103092B40F381850DF162
:104310009F0C6246BA4F1C46104687FB0312D91702
:10432000C1EBA20101EB8102A3EB42023032632C0C
:1043300000F8012C0B4600F1FF32ECDC3033811E1B
:10434000DBB28C4502F8013C40F2FF850DF1920191
:1043500001E012F8013B944501F8013BF9D10DF160
:10436000A1030DF192021B1A134424AA9B1A1A935B
:10437000129B1A9A012B1A440C9240F39E850C9BB7
:10438000169A13440C9300230C9A29F4806722EAAE
:10439000E27247F480770F930692139310931D9B5C
:1043A000002B40F0B0829DF883200893FFF74FBAAE
:1043B0000E9B0B9853F8041BC2175546C1E9000227
:1043C0000E93FFF7FCB98F4B189317F0200949D0D3
:1043D0000E9B073323F00703D3F8049053F8084BE0
:1043E0000E93F80709D554EA090306D030238DF857
:1043F000856047F002078DF88430022327F4806B34
:10440000FFF7B1BABB46FFF70DBB7F4B1893DCE754
:104410000799099828AA03F08DF900287FF42BA9A1
:104420002A9C0DF1AC08FFF792B90799099828AAC0
:1044300003F080F900287FF41EA92A9C0DF1AC0836
:10444000FFF7DEBB062B294628BF06232A46089520
:104450000D9506936D4D0E940C930F911391109141
:10446000FFF7F5B917F0100369D00E9B53F8044B12
:104470000E93B6E70799099828AA03F05BF900287C
:104480007FF4F9A8DDE929640DF1AC0888E4079907
:10449000099828AA03F04EF900287FF4ECA8DDE97A
:1044A00029640DF1AC0888E400230BF48062CDE9A7
:1044B0000CA8069692461E46DDF8648054AF0CE0C8
:1044C0000023204649460A22FCF7BCFB0A2C79F15E
:1044D00000031BD3044689462F4620460A220023A8
:1044E0004946FCF7AFFB30327D1E013607F8012C40
:1044F000BAF1000FE4D098F800309E42E0D1FF2ED0
:10450000DED00A2C79F1000380F0E080CDF86480E1
:104510001296DDE90CA8069EFFF714BB07990998CF
:1045200028AA1D9303F006F900287FF4A4A89DF89B
:1045300083202A9C1D9B0DF1AC08FFF7E1B817F012
:10454000400200F0B4800E9A994652F8044B0E9245
:10455000A4B246E70799099828AA03F0EBF80028C7
:104560007FF489A82A9C0DF1AC08FFF736BB1446EE
:104570003A464F46914601332C44072BC8F8009029
:10458000C8F80450CDE929347FF7F9A83BE4012BA2
:10459000BB467FF4C6AA8CE40E9B0B9953F8042B00
:1045A000554611600E93FFF70AB9102E40F3AD8403
:1045B000DFF85C90214648464246B946A8464FF08F
:1045C000100B0746299B099C079D04E00832103E0A
:1045D000102E40F3488201331031072BC2E9007BD3
:1045E000CDE92931F2DD2946204628AA03F0A2F8B8
:1045F00000287FF440A8DDE929312BAAE7E700BFB6
:1046000067666666FC9E0008109F0008249F0008ED
:10461000409F0008169B1798E218C8E90003299BE1
:104620002A920133072B299300F3318108F10808FE
:104630000029C0F20283129901338C18072BCDE9AF
:104640002934C8F80050C8F804107FF798A8FFF77D
:10465000DABB2846CDF820900E9402F0CDFF20EA78
:10466000E073CDE90C099DF88320CDF83C90CDF89E
:104670004C90CDF840900693FFF7E9B81446089F98
:1046800001362C44072ECDE92964C8F80090C8F8FB
:1046900004507FF7A9AB06E517F400790E9B3DD0D7
:1046A00053F8044B91460E93E4B2FFF759B917F44F
:1046B00000790E9B40D053F8044B91460E93E4B220
:1046C0008FE6299ADFF84C92FFF749BB1C9B1B9998
:1046D000ED1A1A46284602F0BDFF98F801300BB1DA
:1046E00008F10108204649460A2200230026FCF76B
:1046F000A9FAEFE62D228DF88320FFF798B8129AD9
:10470000AE18A6EB0B06D51AAE42A8BF2E468AE419
:1047100044F3C0194B4664B2FFF7C3B853F8044BD7
:104720000E93FFF71DB90E9B0B9953F8042B5546BA
:1047300011800E93FFF743B853F8044B0E9350E6E5
:1047400052F8044B894601230E92E4B2FFF70BB9ED
:1047500030238DF8843058238DF88530089B47F03E
:104760000204632B00F3E38200233BAD0D9347F477
:1047700081730F93DDE914121346002B2746C0F214
:1047800040820C9300238B461D9326F02003069352
:10479000612E00F01783412E7FF473AD22AA584694
:1047A0000C9902F099FE00224FF07F53FBF78CFE2C
:1047B00002460B46CDE9102300220023FCF7D2F974
:1047C00008B101232293544B0C93089BCDE912A608
:1047D000CDE91E78DDE91067AB46DDF830A003F1C6
:1047E000FF39109506E00022002309F1FF39FCF79C
:1047F000B9F9E8B90022494B30463946FBF764FE67
:104800000F460646FCF7F6F90446FBF7F3FD0B46A8
:10481000024639463046FBF79FFC1AF80430B9F1DE
:10482000FF3FD8464D4606460F460BF8013BDAD10E
:104830003046394600223A4BA946DDF848A0109D83
:10484000CDF84880CDE91001DDF87C80139E1E9FD5
:10485000FCF7B0F9002840F04482DDE910010022A5
:104860002F4BFCF77FF910B1E10700F13A824B467C
:10487000002B06DB302201335B440BF8012B5B4538
:10488000FBD1ABEB0503B94612930F9F1DE50799CA
:10489000099828AA02F04EFF00287EF4ECAEDDE96C
:1048A000293222990DF1AC08C2E6906D01F0FEFEAE
:1048B000FEF7B3BE229BDA1C109302DB089A9342E8
:1048C00004DD023E26F02003069308E5109B129AB1
:1048D0009342C0F2828119F0010F00F0A882169A6B
:1048E00013440C9319F4806F00F09082109B67269C
:1048F000002B00F346810C9B23EAE373069300230D
:104900000F9313934BE52D2200238DF883200893FA
:10491000FEF7A0BF409F0008109F00080000304035
:104920000000E03F129B4246DDF84C80EB185E46EB
:104930000893CDF830A010972146199FDDF87090AC
:10494000DDF824A0DDF81CB00F9B1395B8F1000F23
:104950002ED0002B6CD1013F08F1FF381B9B49443E
:10496000C2E90039299B2A910133072B299363DC83
:104970000832089B38789B1B8342A8BF0346002B54
:104980001C460ADD2998194401300728C2E9006352
:104990002A9129905BDC38780832002CB4BF054698
:1049A000051B002D15DC06440F9BB8F1000FD0D17C
:1049B000002B3DD1DDE91235EB189E42B346199725
:1049C0000C46904628BF9B46DDF830A0109FFFF7AD
:1049D000FDBA102D40F36F821024299804E0103D99
:1049E000102D02F1080216DD0130A84B1031072806
:1049F000C2E90034CDE92901F1DD5946504628AA23
:104A000002F098FE00287EF436AEDDE92901103D63
:104A1000102D2BAAE8DC01309C4B29440728CDE956
:104A20002901556013604EDC387808320644BBE734
:104A30000F9B013B0F9391E75946504628AA02F07D
:104A400079FE00287EF417AE2A992BAA91E75946E1
:104A5000504628AA02F06EFE00287EF40CAE38788C
:104A60002A992BAA99E7454690463A460C464F4666
:104A7000914601333444072BCDE92934C8F800901E
:104A8000C8F8046000F35D8108F10808FFF798BAE0
:104A90000799099828AA02F04DFE00287EF4EBAD94
:104AA00022992A9C0DF1AC08FFF78CBB0799099855
:104AB00028AA02F03FFE00287EF4DDAD2A9C0DF10D
:104AC000AC08FFF774BA5946504628AA02F032FEE5
:104AD00000287EF4D0AD38782A992BAA064463E7E3
:104AE00008990C9B01910321009126A9049123A907
:104AF000039122A95A460998029100F085FB037898
:104B00000546302B00F0C081229B089AB946134419
:104B10000F9FEC185846002200230C99FCF722F84E
:104B200010B12346FFF7CFBB269BA342BFF4CBAB0C
:104B300030215A1C26921970269B9C42F9D8FFF707
:104B4000C2BB0799099828AA02F0F4FD00287EF458
:104B500092AD229B2A9C0DF1AC08FFF74CBA229A29
:104B6000002A109240F3B981089909F001030B4320
:104B700040F040816626109B0C9319F4806F3FF43F
:104B8000BAAE19990B78FF2B00F0D6810024109A49
:104B9000204604E001300131FF2B00F06481934294
:104BA00080F26181D21A4B78002BF3D10B7801345B
:104BB000F2E7DDE92921FFF764B9089B9DF883201E
:104BC0000E9406930C9308900F9013901090FEF79C
:104BD0003EBE00230893FEF78ABC129B169A9A18D1
:104BE000109B0C92002B40F35D816726C5E7079967
:104BF000099828AA02F09EFD00283EF4E8ADFEF7D1
:104C000040BD26F0200306932D22DDE914349B4697
:104C100004F100431D920C93BAE50799099828AA5C
:104C200002F088FD00287EF426AD229D129B2A9C6E
:104C30000DF1AC085D1BFFF7F6B94E42103180F262
:104C4000818141461024A846DFF84090DDF824B069
:104C5000079D04E00831103E102E40F39980013387
:104C60001032072BC1E90094CDE92932F2DD294643
:104C7000584628AA02F05EFD00287EF4FCACDDE96F
:104C800029322BA9E7E7299BFFF762B9409F00086B
:104C9000079B5B6EDD0707D4079B9B899C0503D4AC
:104CA000079B986D01F002FD4FF0FF330B93FEF769
:104CB000F1BC089BEC182DE70221009108995A4697
:104CC0004C1C26A9049123A9039122A90C9B0998A5
:104CD0000194029100F098FA0546B9462C440F9FC2
:104CE00018E7129B26930C9B1BF8012CD97B5B4683
:104CF0008A4209D1302003F8010C269B5A1E2692C5
:104D000013F8012C9142F6D0392A0BBF0C9A0132CC
:104D1000927AD2B203F8012CB3E5299ADFF83492E3
:104D2000FEF7DABF30238DF88430782314E5099834
:104D3000591C01F02DFD0546002800F0F6800D906D
:104D400015E50799099828AA02F0F4FC00287EF4DA
:104D500092AC2A9C0DF1AC08FFF732B9089B002BEE
:104D600008BF0123089347F480730F93159B002B12
:104D7000C0F2A980DDF850B01D900C930D90FFF7A4
:104D800087BA0623089326F020030693FFF76BBA31
:104D90004546884601333244072BCDE92932C8F80D
:104DA0000090C8F804607FF722AA0799099828AAFA
:104DB00002F0C0FC00287EF45EACDDE929320DF182
:104DC000AC0838E422AA58460C9902F085FB002270
:104DD0004FF07F53FBF778FB02460B46CDE91023DB
:104DE00000220023FBF7BEFE08B1012322935A4B99
:104DF0000C93EAE4169B6626D31819440C91BCE682
:104E000006F10F020121D2B2FFF772BA672672E5EE
:104E100000295FD130228DF892200DF193023033BA
:104E200002F8013B24ABD31A1A93FFF7A1BA109BE7
:104E30000C9357E5159B0320002BB8BF2D224FF094
:104E40000003A8BF9DF8832019460D93434D444BA2
:104E5000B8BF8DF8832027F080070690FEF7EFBCDF
:104E600000230D93D0E61991109213900F940F9A8E
:104E7000139B1C9913440C9A01FB03230C9323EA04
:104E8000E3730693FFF78BBA5846002200230C9970
:104E9000FBF768FE00287FF437AE089BC3F10103DF
:104EA000229332E6C3F101031A4422EAE273672631
:104EB0000C92069323E52998ADE519F0010F3FF414
:104EC00062AAFFF75CBA0D909EE6299BDFF88490FA
:104ED000FFF751BB0DF19202A1E7089A09F0010911
:104EE00059EA020304D10123662606930C9306E5D2
:104EF000169B662601331A4422EAE2730C9206934B
:104F0000FDE4DFF85090FFF7BBBB299BDFF844902E
:104F1000AFE50E9B9AF80160924653F8042B0E936E
:104F200042EAE2730893FEF7E0BA079A938943F0E6
:104F300040039381FEF7A5BB00230F93139396E7DD
:104F4000089CCAE6DFF80C9024E702231A93FFF7C7
:104F50000FBA00BF409F0008FC9E0008F49E0008A6
:104F6000F89E0008F0B54FF4806C15460024064604
:104F70001F46ADF26C4D1AAB009304938B8916A8B3
:104F800023F00203ADF80C304B6E06941993CB89D5
:104F90000C46ADF80E30CB69CDF808C007934B6ACC
:104FA000CDF814C0099301F07BFB2A463B466946C5
:104FB0003046FEF72BFA051E07DB6946304601F046
:104FC0001BF9002818BF4FF0FF35BDF80C305B0609
:104FD00003D5A38943F04003A381169801F062FB37
:104FE00028460DF26C4DF0BD38B5334B05461B68B5
:104FF0000C460BB19A6B12B3B4F90C3018079AB285
:1050000025D5216900292DD012F0010007D00025F7
:105010006069A5604042A06139B1002038BD9507A4
:1050200058BF6069A0600029F7D1120658BF084632
:10503000F4D543F040034FF0FF30A38138BD18464C
:1050400001F00EF9B4F90C3018079AB2D9D4D10690
:105050002AD5520714D4216943F00803A3819AB2D8
:105060000029D1D102F42070B0F5007FCCD02146C8
:10507000284601F01DFBB4F90C3021699AB2C3E750
:10508000216B51B104F14002914204D0284601F055
:10509000DFF9B4F90C30002222630022216923F0E9
:1050A0002403C4E90012D7E7092243F040032A6031
:1050B0004FF0FF30A38138BD10000020024B13B128
:1050C000024800F005B87047000000008563000842
:1050D000002301461A46184603F058BA2DE9F04F4E
:1050E00003690C6985B0A342C0F28980013C01F1DB
:1050F0001405A30000F11408019355F8243058F862
:10510000242001338A469A4208EB84018146B2FB8F
:10511000F3F605EB840702913AD30021AE464046F0
:105120000A46A34603955EF8045B0468ABB206FB2F
:1051300003132D0C190C06FB05119BB2D21A1FFA92
:1051400084FC94448AB2C2EB144202EB2C421FFA54
:105150008CFC4CEA0243774540F8043B4FEA11418E
:105160004FEA2242DFD2019B5C4658F80330039D90
:1051700073B9029B043B984504D307E0984504F1BA
:10518000FF3403D253F80429002AF7D0C9F810409D
:105190005146484602F078F800282CDB40460023B0
:1051A000013655F8041BD0F800C08AB29A1A1FFACB
:1051B0008CFE0B0C7244C3EB1C4303EB224392B2F4
:1051C00042EA0342AF4240F8042B4FEA2343E8D2BD
:1051D00058F8242008EB84036AB9043B984504D3AB
:1051E00007E0984504F1FF3403D253F80429002A5C
:1051F000F7D0C9F81040304605B0BDE8F08F002068
:1052000005B0BDE8F08F00BF2DE9F04F90469946FC
:10521000016C99B00446CDE90489259D41B1012373
:10522000426C93408B604A6001F0D8FD00232364F8
:10523000B9F1000AB4BF012300232B60764BBCBF39
:105240002AF0004ACDF814A033EA0A0300F0AA803D
:10525000DDE904231046194600220023CDE90A01A6
:10526000FBF780FC074670B10123249A1360269B4C
:10527000002B00F0E68269481860431E03930398F0
:1052800019B0BDE8F08F16AB019317AB0093204621
:10529000DDE90A2302F0BEF85FEA1A56054640F03F
:1052A0009780DDE916763E4406F23240202840F32E
:1052B000B783C0F140000AFA00FA06F2124028FA59
:1052C00000F04AEA0000FBF785F80123013E0F9346
:1052D000A1F1F8710022524BFAF73EFF48A3D3E93F
:1052E0000023FBF7F1F848A3D3E90023FAF736FFD0
:1052F000804630468946FBF77DF845A3D3E9002375
:10530000FBF7E2F802460B4640464946FAF726FF0D
:1053100080468946FBF76EFC002283460023404608
:105320004946FBF729FC002840F07E82BBF1160FAE
:1053300000F26D82DDE90A013A4B03EBCB03D3E9BE
:105340000023FBF719FC002872D00023BE1B0E932C
:10535000731E0BF1FF3B069300F16082002309935B
:10536000BBF1000F6BDA099BCDF81CB0A3EB0B036C
:105370000993CBF100030D93229B4FF0000B092BF7
:1053800066D8052B40F34A830026043B2293229BD8
:10539000023B032B00F26C86DFE813F061045E042D
:1053A0005504380442F20F73249ACAF3130A1360A7
:1053B0005AEA08031AD1269B002B00F068861A4B84
:1053C00003930833269A0398136019B0BDE8F08F51
:1053D000DDE90A12C2F31303084643F07F510F9729
:1053E000A6F2FF36169F41F4401173E7269B002B6F
:1053F00040F0EF830D4B039341E700BFAFF3008014
:1054000061436F63A787D23FB3C8608B288AC63FCA
:10541000FB799F501344D33F0000F07F2D9F00087D
:105420000000F83FA0A00008549F0008509F00080B
:10543000BE1B731E069300F18A840E900990069B92
:105440005B44CDE9063B00230D93229B092B98D9A1
:10545000002322934FF0FF330126089300230C967C
:1054600023930021089B61641293204601F090FC75
:105470000390002800F00486039B2364089B0E2BF6
:1054800000F21481002E00F011810799002940F3E9
:105490006084AF4B01F00F0203EBC2030A46D3E96D
:1054A00000674FEA2118D10540F11784DDE90A01B0
:1054B000A84B4FF0030AD3E90823FBF72FF9CDE9F6
:1054C000100108F00F08B8F1000F13D0DFF8849234
:1054D00018F0010F09D0D9E9002330463946FAF710
:1054E000F3FF06460F460AF1010A5FEA680809F170
:1054F0000809EDD1DDE9100132463B46FBF70EF914
:10550000804689460E9B43B1002240464946924B55
:10551000FBF732FB002840F035855046FAF76AFF6A
:1055200042464B46FAF7D0FF8C4B0022FAF716FEA4
:10553000A1F15073CDE910011193089B002B00F0ED
:105540009780079B1493089B13930C9B002B00F0F0
:10555000A984139A7E4B002003EBC20353E9022374
:105560007F49FBF7DBF8DDE91023FAF7F5FDCDE91C
:10557000100149464046FBF73DFB0746FAF73AFF64
:1055800002460B4640464946FAF7E6FDDDE91023A0
:10559000039E303706F8017B80468946FBF7ECFA1C
:1055A000002840F02E85CDF854B00027DDE910AB7F
:1055B0001095139D13942AE00137AF4280F22E8597
:1055C000504659460022674BFAF77EFF0022654B92
:1055D00082468B4640464946FAF776FF8946804622
:1055E000FBF708FB0446FAF705FF02460B46404668
:1055F0004946FAF7B1FD303452465B4606F8014B96
:1056000080468946FBF7B8FA002840F0F884424605
:105610004B4600205049FAF79FFD52465B46FBF788
:10562000ABFA0028C8D0DDE91343109D039A079315
:1056300002E0964200F0CD84B24616F8013D392BC7
:10564000F7D00133DBB23370079B01330793C8E116
:105650005046FAF7CFFE42464B46FAF735FF3F4B2E
:105660000022FAF77BFDA1F15073CDE910011193EF
:105670004046494600223C4BFAF76EFDDDE91089B1
:105680004B46424606460F46FBF794FA81460028F1
:1056900040F0AF84DDE91001024601F100433046DD
:1056A0003946FBF769FA002840F04883179B002B26
:1056B000C0F28C80079A0E2A00F38880244B03EBFB
:1056C000C203D3E900AB239B002B1BDA089B002B02
:1056D00018DC40F031830022234B50465946FAF73C
:1056E000F3FE02460B46DDE90A01FBF74FFADDF84F
:1056F00020904E46002800F0CA82239BDDF80C80E3
:10570000DF43CCE25246DDE90A785B463846414643
:10571000FBF704F8FBF76EFA81460990FAF76AFE88
:1057200052465B46FAF7D0FE039E0B4602464146C0
:105730003846FAF711FD09F1300306F8013B089BE2
:10574000012B00F05F83069401271C4604952AE094
:10575000A0A0000878A000080000F03F00001C4056
:105760000000E03F000024400000144052465B4629
:1057700040464946FAF7D2FFFBF73CFA0546FAF7EE
:1057800039FE52465B46FAF79FFE01370B4602464A
:1057900049464046FAF7E0FC05F13003A74206F817
:1057A000013B00F02C830022AB4BFAF78DFE002268
:1057B000002380468946FBF7D5F90028D6D0049D02
:1057C000069C079BB246013307930AE10C9A002A14
:1057D0003DD0229A012A40F39F82089B03F1FF38B3
:1057E0000D9B4345C0F27082A3EB0808089B002B79
:1057F000C0F24083069A1A440692099A17461A4440
:1058000009920121204601F091FB064623E0012385
:10581000BE1B0E93731E06937FF5A0ADC6F1010368
:105820000993002306939BE55846FAF7E3FD4246A9
:105830004B46FBF797F900287FF478AD0BF1FF3B5F
:1058400074E5864B0393039819B0BDE8F08FDDF83B
:105850003480099F0C9E002F0CDD069900290B4611
:1058600008DDB942A8BF3B46099AFF1AD21ACB1AE3
:10587000099206930D9BE3B10C9B002B00F0608214
:10588000B8F1000F10DD31464246204601F02AFCF7
:1058900006462A463146204601F076FB0346294655
:1058A00020461D4601F09AFA0D9BB3EB080240F02A
:1058B000DB820121204601F039FBBBF1000F81465C
:1058C00000F3B380229B012B40F388814FF0000A44
:1058D0000120BBF1000F40F0B480069A104410F094
:1058E0001F0000F09280C0F12003042B40F3D3830B
:1058F000099BC0F11C00034402440993074406922B
:10590000099B002B05DD29461A46204601F046FC7E
:105910000546069B002B05DD49461A46204601F048
:105920003DFC81460E9B002B40F03881089B002BEC
:1059300040F31E810C9B002B40F09F80079B01339E
:1059400007930127DDF80C80DDF820A007E0294649
:1059500000230A22204601F04BFA0546013749464A
:105960002846FFF7BBFB574500F1300308F8013B21
:10597000EDDB089A0027002ACCBF93464FF0010BBD
:10598000039A9344294601222046049301F006FC21
:105990004946054601F078FC002840F3AB811BF82E
:1059A000013C039A0BF1FF3B04E05A4500F0AD8146
:1059B0001BF8013D392B0BF1010AF6D001338BF8AE
:1059C00000304946204601F009FA56B12FB1B742DE
:1059D00003D03946204601F001FA3146204601F055
:1059E000FDF92946204601F0F9F90023079A8AF8C3
:1059F0000030249B1A60269B002B3FF440AC039898
:105A0000C3F800A019B0BDE8F08F1C20099B074423
:105A100003440993069B0344069371E70126B6E409
:105A2000C0F1200008FA00F04DE401465A46204635
:105A300001F058FB229B8146012B40F3B6814FF0C9
:105A4000000AD9F8103009EB8303186901F022FA33
:105A5000C0F1200041E700BF000024402C9F000857
:105A6000314600230A22204601F0C2F9129B064665
:105A7000002B40F3E982CDE90783002F00F31D815D
:105A8000BAF1000F40F0D981B046049B089903F0A9
:105A90000102039B0A921F46013B1944229B089175
:105AA0001343099349462846FFF718FB31468346BE
:105AB000284601F0E9FB424649468246204601F06D
:105AC00003FCC26801460BF13003002A43D1049065
:105AD0002846069301F0D8FB02460499204604921A
