:020000040800F2
:10000000000008247D200008D11E0008D31E00082F
:10001000D51E0008D71E0008D91E000800000000E9
:10002000000000000000000000000000DB1E0008CF
:10003000DD1E000800000000DF1E0008E11E0008B1
:10004000CD200008CD200008CD200008CD200008DC
:10005000CD200008CD200008CD200008CD200008CC
:10006000CD200008CD200008CD200008CD200008BC
:10007000CD200008CD200008CD200008CD200008AC
:10008000CD200008CD200008CD200008CD2000089C
:10009000CD200008CD200008CD200008CD2000088C
:1000A000CD200008CD200008CD200008CD2000087C
:1000B000CD200008CD200008CD200008CD2000086C
:1000C000CD200008CD200008CD200008CD2000085C
:1000D000CD200008CD200008CD200008CD2000084C
:1000E000CD200008CD20000800000000CD20000831
:1000F000CD200008CD200008CD200008CD2000082C
:10010000CD200008CD200008CD200008CD2000081B
:10011000E91E0008CD200008CD200008CD200008F1
:10012000CD200008CD200008CD200008CD200008FB
:10013000CD200008CD200008CD200008CD200008EB
:1001400000000000000000000000000000000000AF
:10015000CD200008CD200008CD200008CD200008CB
:10016000CD200008CD200008CD200008CD200008BB
:10017000CD200008CD200008CD200008CD200008AB
:10018000CD200008CD200008CD200008CD2000089B
:10019000CD200008CD200008CD200008CD2000088B
:1001A000CD200008CD200008CD200008CD2000087B
:1001B000CD200008CD200008CD200008CD2000086B
:1001C000CD200008CD200008CD200008CD2000085B
:1001D000CD200008CD200008CD200008CD2000084B
:1001E000CD200008CD200008CD200008CD2000083B
:1001F000CD200008CD200008CD200008CD2000082B
:10020000CD200008CD200008CD200008CD2000081A
:10021000CD200008CD200008CD200008CD2000080A
:10022000CD200008CD200008CD20000800000000EF
:10023000CD200008CD20000800000000CD200008DF
:10024000CD200008CD200008CD200008CD200008DA
:10025000CD200008CD200008CD200008CD200008CA
:10026000CD200008CD200008CD200008CD200008BA
:10027000CD200008CD200008CD200008000000009F
:10028000CD200008CD200008CD200008000000008F
:0802900000000000CD20000871
:1002C00010B5054C237833B9044B13B10448AFF390
:1002D00000800123237010BDC0090024000000002D
:1002E0001CB2000808B5034B1BB103490348AFF328
:1002F000008008BD00000000C40900241CB20008F2
:1003000081F0004102E000BF83F0004330B54FEAC6
:1003100041044FEA430594EA050F08BF90EA020F33
:100320001FBF54EA000C55EA020C7FEA645C7FEAC6
:10033000655C00F0E2804FEA5454D4EB5555B8BFE9
:100340006D420CDD2C4480EA020281EA030382EA5A
:10035000000083EA010180EA020281EA0303362DEC
:1003600088BF30BD11F0004F4FEA01314FF4801CBF
:100370004CEA113102D0404261EB410113F0004FD1
:100380004FEA03334CEA133302D0524263EB430388
:1003900094EA050F00F0A780A4F10104D5F1200E26
:1003A0000DDB02FA0EFC22FA05F2801841F1000181
:1003B00003FA0EF2801843FA05F359410EE0A5F155
:1003C00020050EF1200E012A03FA0EFC28BF4CF086
:1003D000020C43FA05F3C01851EBE37101F000453C
:1003E00007D54FF0000EDCF1000C7EEB00006EEB49
:1003F0000101B1F5801F1BD3B1F5001F0CD34908D3
:100400005FEA30004FEA3C0C04F101044FEA445229
:1004100012F5800F80F09A80BCF1004F08BF5FEAB0
:10042000500C50F1000041EB045141EA050130BD90
:100430005FEA4C0C404141EB0101013C28BFB1F5A2
:10044000801FE9D291F0000F04BF01460020B1FAED
:1004500081F308BF2033A3F10B03B3F120020CDAC0
:100460000C3208DD02F1140CC2F10C0201FA0CF09E
:1004700021FA02F10CE002F11402D8BFC2F1200C03
:1004800001FA02F120FA0CFCDCBF41EA0C019040B9
:10049000E41AA2BF01EB0451294330BD6FEA040402
:1004A0001F3C1CDA0C340EDC04F11404C4F12002ED
:1004B00020FA04F001FA02F340EA030021FA04F3FF
:1004C00045EA030130BDC4F10C04C4F1200220FA56
:1004D00002F001FA04F340EA0300294630BD21FA94
:1004E00004F0294630BD94F0000F83F4801306BF5A
:1004F00081F480110134013D4EE77FEA645C18BF4E
:100500007FEA655C29D094EA050F08BF90EA020FE4
:1005100005D054EA000C04BF1946104630BD91EADC
:10052000030F1EBF0021002030BD5FEA545C05D1DF
:100530004000494128BF41F0004130BD14F580041E
:100540003CBF01F5801130BD01F0004545F0FE4192
:1005500041F470014FF0000030BD7FEA645C1ABFC7
:10056000194610467FEA655C1CBF0B46024650EAFE
:10057000013406BF52EA033591EA030F41F400212A
:1005800030BD00BF90F0000F04BF0021704730B5B0
:100590004FF4806404F132044FF000054FF0000185
:1005A00050E700BF90F0000F04BF0021704730B546
:1005B0004FF4806404F1320410F0004548BF40421B
:1005C0004FF000013EE700BF42004FEAE2014FEA70
:1005D00031014FEA02701FBF12F07F4393F07F4F4B
:1005E00081F06051704732F07F4208BF704793F04E
:1005F0007F4F04BF41F40021704730B54FF4607461
:1006000001F0004521F000411CE700BF50EA010263
:1006100008BF704730B54FF000050AE050EA01020C
:1006200008BF704730B511F0004502D5404261EB7C
:1006300041014FF4806404F132045FEA915C3FF4BD
:10064000D8AE4FF003025FEADC0C18BF03325FEA5A
:10065000DC0C18BF033202EBDC02C2F1200300FA0B
:1006600003FC20FA02F001FA03FE40EA0E0021FA30
:1006700002F11444BDE600BF70B54FF0FF0C4CF41E
:10068000E06C1CEA11541DBF1CEA135594EA0C0FD0
:1006900095EA0C0F00F0DEF82C4481EA030621EA0B
:1006A0004C5123EA4C5350EA013518BF52EA033546
:1006B00041F4801143F4801338D0A0FB02CE4FF0F8
:1006C0000005E1FB02E506F00042E0FB03E54FF028
:1006D0000006E1FB03569CF0000F18BF4EF0010E20
:1006E000A4F1FF04B6F5007F64F5407404D25FEA1C
:1006F0004E0E6D4146EB060642EAC62141EA5551CF
:100700004FEAC52040EA5E504FEACE2EB4F1FD0C10
:1007100088BFBCF5E06F1ED8BEF1004F08BF5FEA8E
:10072000500E50F1000041EB045170BD06F0004640
:1007300046EA010140EA020081EA0301B4EB5C04ED
:10074000C2BFD4EB0C0541EA045170BD41F48011E5
:100750004FF0000E013C00F3AB8014F1360FDEBF0A
:10076000002001F0004170BDC4F10004203C35DAE6
:100770000C341BDC04F11404C4F1200500FA05F369
:1007800020FA04F001FA05F240EA020001F000420A
:1007900021F0004110EBD37021FA04F642EB060180
:1007A0005EEA430E08BF20EAD37070BDC4F10C04AA
:1007B000C4F1200500FA04F320FA05F001FA04F26E
:1007C00040EA020001F0004110EBD37041F100015A
:1007D0005EEA430E08BF20EAD37070BDC4F1200565
:1007E00000FA05F24EEA020E20FA04F301FA05F2CD
:1007F00043EA020321FA04F001F0004121FA04F275
:1008000020EA020000EBD3705EEA430E08BF20EA44
:10081000D37070BD94F0000F0FD101F0004640007E
:1008200041EB010111F4801F08BF013CF7D041EA00
:10083000060195F0000F18BF704703F00046520004
:1008400043EB030313F4801F08BF013DF7D043EAD5
:100850000603704794EA0C0F0CEA135518BF95EA8B
:100860000C0F0CD050EA410618BF52EA4306D1D112
:1008700081EA030101F000414FF0000070BD50EA31
:10088000410606BF1046194652EA430619D094EABB
:100890000C0F02D150EA013613D195EA0C0F05D1A5
:1008A00052EA03361CBF104619460AD181EA0301F9
:1008B00001F0004141F0FE4141F470014FF00000B1
:1008C00070BD41F0FE4141F4780170BD70B54FF04C
:1008D000FF0C4CF4E06C1CEA11541DBF1CEA1355CC
:1008E00094EA0C0F95EA0C0F00F0A7F8A4EB0504AE
:1008F00081EA030E52EA03354FEA013100F08880A5
:100900004FEA03334FF0805545EA131343EA12636D
:100910004FEA022245EA111545EA10654FEA002622
:100920000EF000419D4208BF964244F1FD0404F5DB
:10093000407402D25B084FEA3202B61A65EB030537
:100940005B084FEA32024FF480104FF4002CB6EBF4
:10095000020E75EB030E22BFB61A754640EA0C0074
:100960005B084FEA3202B6EB020E75EB030E22BFB4
:10097000B61A754640EA5C005B084FEA3202B6EBF5
:10098000020E75EB030E22BFB61A754640EA9C00B4
:100990005B084FEA3202B6EB020E75EB030E22BF84
:1009A000B61A754640EADC0055EA060E18D04FEA42
:1009B000051545EA16754FEA06164FEAC30343EAE2
:1009C00052734FEAC2025FEA1C1CC0D111F4801FAF
:1009D0000BD141EA00014FF000004FF0004CB6E7A8
:1009E00011F4801F04BF01430020B4F1FD0C88BF47
:1009F000BCF5E06F3FF6AFAEB5EB030C04BFB6EB52
:100A0000020C5FEA500C50F1000041EB045170BD44
:100A10000EF0004E4EEA113114EB5C04C2BFD4EB71
:100A20000C0541EA045170BD41F480114FF0000EF5
:100A3000013C90E645EA060E8DE60CEA135594EA71
:100A40000C0F08BF95EA0C0F3FF43BAF94EA0C0F74
:100A50000AD150EA01347FF434AF95EA0C0F7FF4E9
:100A600025AF104619462CE795EA0C0F06D152EA3D
:100A700003353FF4FDAE1046194622E750EA410621
:100A800018BF52EA43067FF4C5AE50EA41047FF432
:100A90000DAF52EA43057FF4EBAE12E74FEA410295
:100AA000B2F1E04324BFB3F5001CDCF1FE5C0DD9CC
:100AB00001F0004C4FEAC0024CEA5070B2F1004F16
:100AC00040EB830008BF20F00100704711F0804F19
:100AD00021D113F13872BCBF01F00040704741F4DE
:100AE00080114FEA5252C2F11802C2F1200C10FAE2
:100AF0000CF320FA02F018BF40F001004FEAC123C6
:100B00004FEAD32303FA0CFC40EA0C0023FA02F369
:100B10004FEA4303CCE77FEA625307D150EA01333F
:100B20001EBF4FF0FE4040F44000704701F000400F
:100B300040F0FE4040F40000704700BF80F00040ED
:100B400002E000BF81F0004142001FBF5FEA4103A5
:100B500092EA030F7FEA226C7FEA236C6AD04FEAA5
:100B60001262D2EB1363C1BFD218414048404140EA
:100B7000B8BF5B42192B88BF704710F0004F40F49C
:100B8000000020F07F4018BF404211F0004F41F4B8
:100B9000000121F07F4118BF494292EA030F3FD084
:100BA000A2F1010241FA03FC10EB0C00C3F1200397
:100BB00001FA03F100F0004302D5494260EB400026
:100BC000B0F5000F13D3B0F1807F06D340084FEA91
:100BD000310102F10102FE2A51D2B1F1004F40EB86
:100BE000C25008BF20F0010040EA030070474900EE
:100BF00040EB0000013A28BFB0F5000FEDD2B0FA8B
:100C000080FCACF1080CB2EB0C0200FA0CF0AABFAD
:100C100000EBC25052421843BCBFD040184370474B
:100C200092F0000F81F4000106BF80F40000013251
:100C3000013BB5E74FEA41037FEA226C18BF7FEA28
:100C4000236C21D092EA030F04D092F0000F08BF6A
:100C50000846704790EA010F1CBF0020704712F051
:100C60007F4F04D1400028BF40F00040704712F190
:100C700000723CBF00F50000704700F0004343F0F5
:100C8000FE4040F4000070477FEA226216BF08462B
:100C90007FEA23630146420206BF5FEA412390EAEE
:100CA000010F40F4800070474FF0000304E000BFE4
:100CB00010F0004348BF40425FEA000C08BF704795
:100CC00043F0964301464FF000001CE050EA010259
:100CD00008BF70474FF000030AE000BF50EA01026E
:100CE00008BF704711F0004302D5404261EB41015B
:100CF0005FEA010C02BF84460146002043F0B64380
:100D000008BFA3F18053A3F50003BCFA8CF2083AA4
:100D1000A3EBC25310DB01FA02FC634400FA02FCAD
:100D2000C2F12002BCF1004F20FA02F243EB0200B4
:100D300008BF20F00100704702F1200201FA02FC16
:100D4000C2F1200250EA4C0021FA02F243EB020009
:100D500008BF20EADC7070474FF0FF0C1CEAD0524D
:100D60001EBF1CEAD15392EA0C0F93EA0C0F6FD00E
:100D70001A4480EA010C400218BF5FEA41211ED0EC
:100D80004FF0006343EA501043EA5111A0FB0131D8
:100D90000CF00040B1F5000F3EBF490041EAD371AD
:100DA0005B0040EA010062F17F02FD2A1DD8B3F129
:100DB000004F40EBC25008BF20F00100704790F098
:100DC000000F0CF0004C08BF49024CEA502040EAEA
:100DD00051207F3AC2BFD2F1FF0340EAC2507047B0
:100DE00040F400004FF00003013A5DDC12F1190FEE
:100DF000DCBF00F000407047C2F10002410021FA60
:100E000002F1C2F1200200FA02FC5FEA310040F177
:100E1000000053EA4C0308BF20EADC70704792F0F0
:100E2000000F00F0004C02BF400010F4000F013A28
:100E3000F9D040EA0C0093F0000F01F0004C02BF23
:100E4000490011F4000F013BF9D041EA0C018FE792
:100E50000CEAD15392EA0C0F18BF93EA0C0F0AD098
:100E600030F0004C18BF31F0004CD8D180EA0100BE
:100E700000F00040704790F0000F17BF90F0004F57
:100E8000084691F0000F91F0004F14D092EA0C0F39
:100E900001D142020FD193EA0C0F03D14B0218BFCC
:100EA000084608D180EA010000F0004040F0FE4012
:100EB00040F40000704740F0FE4040F440007047AE
:100EC0004FF0FF0C1CEAD0521EBF1CEAD15392EA2D
:100ED0000C0F93EA0C0F69D0A2EB030280EA010C1D
:100EE00049024FEA402037D04FF0805343EA1111B6
:100EF00043EA10130CF000408B4238BF5B0042F114
:100F00007D024FF4000C8B4224BF5B1A40EA0C00B8
:100F1000B3EB510F24BFA3EB510340EA5C00B3EBEA
:100F2000910F24BFA3EB910340EA9C00B3EBD10FD8
:100F300024BFA3EBD10340EADC001B0118BF5FEA2A
:100F40001C1CE0D1FD2A3FF650AF8B4240EBC25053
:100F500008BF20F0010070470CF0004C4CEA502014
:100F60007F32C2BFD2F1FF0340EAC250704740F463
:100F700000004FF00003013A37E792F0000F00F055
:100F8000004C02BF400010F4000F013AF9D040EAD3
:100F90000C0093F0000F01F0004C02BF490011F467
:100FA000000F013BF9D041EA0C0195E70CEAD1535F
:100FB00092EA0C0F08D142027FF47DAF93EA0C0F46
:100FC0007FF470AF084676E793EA0C0F04D14B022A
:100FD0003FF44CAF08466EE730F0004C18BF31F0DC
:100FE000004CCAD130F000427FF45CAF31F00043D6
:100FF0007FF43CAF5FE700BF42000ED2B2F1FE4F7C
:101000000BD34FF09E03B3EB126209D44FEA0023D7
:1010100043F0004323FA02F070474FF0000070479E
:1010200012F1610F01D1420202D14FF0FF3070473F
:101030004FF00000704700BF53B94AB9002908BFFC
:1010400000281CBF4FF0FF314FF0FF3000F074B9A3
:10105000ADF1080C6DE904CE00F006F8DDF804E00F
:10106000DDE9022304B070472DE9F047089E0D46E4
:1010700004468846002B4DD18A42944668D9B2FA7C
:1010800082F252B101FA02F3C2F1200120FA01F119
:101090000CFA02FC41EA030894404FEA1C45210C7B
:1010A000B8FBF5FE1FFA8CF705FB1E8341EA0343EC
:1010B0000EFB07F199420BD91CEB03030EF1FF3035
:1010C00080F01E81994240F21B81AEF1020E634412
:1010D0005B1AA4B2B3FBF5F005FB103344EA0344FA
:1010E00000FB07F7A7420AD91CEB040400F1FF3309
:1010F00080F00881A74240F2058164440238E41B75
:1011000040EA0E4000211EB1D4400023C6E900434E
:10111000BDE8F0878B4208D9002E00F0EE80002158
:10112000C6E900050846BDE8F087B3FA83F1002957
:101130004AD1AB4202D3824200F2F980841A65EBB5
:10114000030301209846002EE2D0C6E90048DFE7FD
:1011500002B9FFDEB2FA82F2002A40F09180A1EBE0
:101160000C054FEA1C471FFA8CFE0121B5FBF7F373
:1011700007FB1350250C45EA00450EFB03F0A8427F
:1011800008D91CEB050503F1FF3802D2A84200F292
:10119000CB8043462D1AA4B2B5FBF7F007FB1055E0
:1011A00044EA05440EFB00FEA64508D91CEB0404E6
:1011B00000F1FF3502D2A64500F2BB802846A4EB21
:1011C0000E0440EA03409EE7C1F120078B4022FA5B
:1011D00007FC4CEA030C20FA07F405FA01F31C4360
:1011E000FD404FEA1C4900FA01F3B5FBF9F8200C69
:1011F0001FFA8CFE09FB185540EA054508FB0EF066
:10120000A84202FA01F20BD91CEB050508F1FF3ADE
:1012100080F08880A84240F28580A8F102086544E9
:101220002D1AA4B2B5FBF9F009FB105544EA0545A7
:1012300000FB0EFEAE4508D91CEB050500F1FF349E
:101240006CD2AE456AD90238654440EA0840A0FB3A
:101250000294A5EB0E05A542C846A64656D353D028
:101260005EB1B3EB080265EB0E0505FA07F722FA4B
:1012700001F3CD401F43C6E900750021BDE8F087AA
:10128000C2F1200320FA03F10CFA02FC25FA03F361
:1012900095400D434FEA1C471FFA8CFEB3FBF7F154
:1012A00007FB11302B0C43EA004301FB0EF0984280
:1012B00004FA02F408D91CEB030301F1FF382FD222
:1012C00098422DD9023963441B1AADB2B3FBF7F033
:1012D00007FB103345EA034500FB0EF3AB4208D988
:1012E0001CEB050500F1FF3816D2AB4214D90238C9
:1012F0006544ED1A40EA014138E73146304607E7D8
:101300008646E5E61846FAE64B45A9D2B9EB02084F
:1013100064EB0C0E0138A3E74046EAE7204694E769
:101320004146D1E7D0467BE7023B654432E70846B9
:1013300009E76444023842E7704700BF000000003C
:1013400090F800F06DE9024520F007016FF0000C05
:1013500010F0070491F820F040F049804FF00004AD
:101360006FF00700D1E9002391F840F000F1080088
:1013700082FA4CF2A4FA8CF283FA4CF3A2FA8CF3C0
:101380004BBBD1E9022382FA4CF200F10800A4FA27
:101390008CF283FA4CF3A2FA8CF3E3B9D1E904237B
:1013A00082FA4CF200F10800A4FA8CF283FA4CF3B2
:1013B000A2FA8CF37BB9D1E9062301F1200182FA6C
:1013C0004CF200F10800A4FA8CF283FA4CF3A2FA72
:1013D0008CF3002BC6D0002A04BF04301A4612BA80
:1013E000B2FA82F2FDE8024500EBD2007047D1E983
:1013F000002304F00305C4F100004FEAC50514F012
:10140000040F91F840F00CFA05F562EA05021CBFE2
:1014100063EA050362464FF00004A9E700000000FC
:1014200001F0FF01102A2BDB10F0070F08D010F895
:10143000013B013A8B422DD010F0070F42B3F6D199
:10144000F0B441EA012141EA014122F007047FF0B2
:1014500000070023F0E80256083C85EA010586EA09
:10146000010685FA47F5A3FA87F586FA47F6A5FA45
:1014700087F68EB9EED1F0BC01F0FF0102F0070251
:1014800032B110F8013B013A83EA010313B1F8D1FC
:101490000020704701387047002D06BF35460338DD
:1014A000073815F0010F07D1013015F4807F02BF16
:1014B000013015F4C03F0130F0BC0138704700BF67
:1014C000844641EA000313F003036DD1403A41D34F
:1014D00051F8043B40F8043B51F8043B40F8043B0E
:1014E00051F8043B40F8043B51F8043B40F8043BFE
:1014F00051F8043B40F8043B51F8043B40F8043BEE
:1015000051F8043B40F8043B51F8043B40F8043BDD
:1015100051F8043B40F8043B51F8043B40F8043BCD
:1015200051F8043B40F8043B51F8043B40F8043BBD
:1015300051F8043B40F8043B51F8043B40F8043BAD
:1015400051F8043B40F8043B51F8043B40F8043B9D
:10155000403ABDD2303211D351F8043B40F8043B3D
:1015600051F8043B40F8043B51F8043B40F8043B7D
:1015700051F8043B40F8043B103AEDD20C3205D34D
:1015800051F8043B40F8043B043AF9D2043208D045
:10159000D2071CBF11F8013B00F8013B01D30B88B7
:1015A00003806046704700BF082A13D38B078DD095
:1015B00010F003038AD0C3F10403D21ADB071CBF67
:1015C00011F8013B00F8013B80D331F8023B20F8D1
:1015D000023B7BE7043AD9D3013A11F8013B00F80A
:1015E000013BF9D20B7803704B7843708B78837092
:1015F000604670474FF0FF3C06E000BF4FF0010C23
:1016000002E000BF4FF0010C4DF804CD4FEA410C51
:101610007FEA6C5C4FEA430C18BF7FEA6C5C1BD01E
:1016200001B050EA410C0CBF52EA430C91EA030F9F
:1016300002BF90EA020F0020704710F1000F91EAFC
:10164000030F58BF994208BF90422CBFD8176FEACA
:10165000E37040F0010070474FEA410C7FEA6C5C98
:1016600002D150EA013C07D14FEA430C7FEA6C5C9F
:10167000D6D152EA033CD3D05DF8040B704700BFCB
:101680008446104662468C461946634600E000BF19
:1016900001B5FFF7B7FF002848BF10F1000F01BDEB
:1016A0004DF808EDFFF7F4FF0CBF012000205DF8B6
:1016B00008FB00BF4DF808EDFFF7EAFF34BF01203B
:1016C00000205DF808FB00BF4DF808EDFFF7E0FFD4
:1016D00094BF012000205DF808FB00BF4DF808ED25
:1016E000FFF7CEFF94BF012000205DF808FB00BF8C
:1016F0004DF808EDFFF7C4FF34BF012000205DF86E
:1017000008FB00BF4FEA410C7FEA6C5C02D150EA53
:10171000013C0AD14FEA430C7FEA6C5C02D152EAE9
:10172000033C02D14FF0000070474FF001007047BA
:101730004FEA410212F5001215D211D56FF47873F9
:10174000B3EB625212D94FEAC12343F0004343EA9C
:10175000505311F0004F23FA02F018BF4042704777
:101760004FF00000704750EA013005D111F0004001
:1017700008BF6FF0004070474FF00000704700BF97
:1017800008B5042000F07CFD0A4B1B680A4AA2FB46
:1017900003239B09013BB3F1807F0AD24FF0E02283
:1017A0005361064BF02183F8231000239361072334
:1017B000136108BD00000024D34D621000ED00E06D
:1017C00010B44FF0E0225469B0F57A7F28BF4FF48F
:1017D0007A700E4B1B680E49A1FB033C4FEA9C4CF0
:1017E0000CFB00FC9369002104E0E01A0244114460
:1017F000614509D21A464FF0E0239B699A42FAD01C
:10180000F3D9D21A1144F3E710BC7047000000244A
:1018100083DE1B4338B50546002404E04FF47A709C
:10182000FFF7CEFF0134AC42F8D338BD0FB430B56A
:10183000B5B038AB53F8045B0193C82422460021AD
:1018400002A803F0A9FD019B2A46214602A803F045
:10185000F5FD02A8FFF774FD0546002409E04FF6E8
:10186000FF73012202A92144054803F0EEFB013475
:10187000E4B2AC42F3D335B0BDE8304004B07047B9
:10188000780A00240FB430B5B5B038AB53F8045B18
:101890000193C8242246002102A803F07DFD019B8C
:1018A0002A46214602A803F0C9FD02A8FFF748FD19
:1018B0000546002409E04FF6FF73012202A92144E6
:1018C000054803F0C2FB0134E4B2AC42F3D335B0B7
:1018D000BDE8304004B07047EC0900242DE9F04128
:1018E00086B0002401940294039404940594174B49
:1018F000D3F8E02042F08002C3F8E020D3F8E030D3
:1019000003F080030093009B4FF4005601964FF0C4
:101910000108CDF80880022704970D4D01A928463B
:1019200000F0F6FD4FF4004301930294CDF80C80D3
:10193000049701A9284600F0EBFD224631462846CF
:1019400000F0EBFE06B0BDE8F08100BF0044025895
:10195000001C025870B500224FF40051224800F0DC
:10196000DCFE4FF40041204800F0D0FE0446002881
:10197000F7D10A20FFF724FF002604E00120FFF73B
:101980001FFF0134E4B2172C19D8174D01224FF470
:101990000051284600F0C1FE76000120FFF710FF3D
:1019A00000224FF40051284600F0B7FE4FF40041EA
:1019B000284600F0ABFE0028E0D00136DEE70A4CF6
:1019C00001224FF40051204600F0A7FE86F40006E5
:1019D0000120FFF7F5FE00224FF40051204600F0F1
:1019E0009CFE304670BD00BF001C025808B5FFF7D2
:1019F000B1FF014B186008BDE4090024000000009D
:101A000008B5FFF7A7FF204B1B68834234D2C01AEA
:101A1000FEF7B8FD1AA3D3E90023FEF757FFFFF73F
:101A20003DF8FFF7E9FA194B1880184B1988184848
:101A3000184BA3FB01239B0903704FF47A7202FB3E
:101A4000131292B2144BA3FB02C252094270A3FBC1
:101A500001235B09642202FB13139BB20F4AA2FB12
:101A600003C3DB088370A2FB0123DB0803EB8303C2
:101A7000A1EB4303C37008BD044B00221A80D4E7D6
:101A80000000000000187C40E4090024E009002464
:101A9000DC090024D34D62101F85EB51CDCCCCCC9A
:101AA000F0B58BB00024059406940794089409942B
:101AB0002A4BD3F8E02042F00402C3F8E020D3F828
:101AC000E02002F004020192019AD3F8E02042F0F3
:101AD0000102C3F8E020D3F8E02002F001020292F4
:101AE000029AD3F8E02042F48072C3F8E020D3F8E1
:101AF000E02002F480720392039AD3F8E02042F0CF
:101B00008002C3F8E020D3F8E03003F080030493B0
:101B1000049B134F01224FF40041384600F0FDFDB5
:101B2000104E01224FF48071304600F0F6FD4FF464
:101B300000430593012506950795089405A93846A5
:101B400000F0E6FC4FF48073059306950795089422
:101B500005A9304600F0DCFC0BB0F0BD0044025893
:101B60000008025800200258014B01221A707047E9
:101B7000EB09002472B6FEE708B51548154B036063
:101B80004FF4E133436000238360C36003610C22A0
:101B900042618361C36103624362836203F0FBFAC3
:101BA00070B900210A4803F083FB58B900210848A6
:101BB00003F0A3FB40B9064803F05BFB30B908BD56
:101BC000FFF7D8FFFFF7D6FFFFF7D4FFFFF7D2FFED
:101BD000780A0024004C004008B51548154B0360F6
:101BE0004FF41653436000238360C36003610C22EB
:101BF00042618361C36103624362836203F0CBFA93
:101C000070B900210A4803F053FB58B90021084875
:101C100003F073FB40B9064803F02BFB30B908BD55
:101C2000FFF7A8FFFFF7A6FFFFF7A4FFFFF7A2FF4C
:101C3000EC0900240010014000B5CDB04C22002179
:101C400039A803F0A9FB2022002131A803F0A4FB4E
:101C5000BC22002102A803F09FFB022000F064FDDB
:101C6000002301932A4B9A6942F440429A619B698E
:101C700003F440430193274BDA6A42F00102DA622F
:101C8000DB6A03F001030193019B214B9B6913F471
:101C9000005FFAD0012339934FF480333A93022343
:101CA0004293439305224492C02245924693479320
:101CB00048930823499300234A934B9339A800F093
:101CC0005DFDF8B93F23319303233293002333930F
:101CD000082334934023359336934FF48062379230
:101CE0003893042131A801F079F968B903230293EC
:101CF00000231F93209302A801F00CFC30B94DB0D3
:101D00005DF804FBFFF736FFFFF734FFFFF732FF04
:101D1000004802580004005810B500F001FAFFF71F
:101D20008BFFFFF72DFDFFF7D9FDFFF7B9FEFFF79A
:101D300023FFFFF751FFFFF759FE4FF4FA60FFF75B
:101D400069FDFFF753FE03221049114802F00EFB14
:101D500017E0104B00221A7003220C490C4802F0C5
:101D600005FBFFF743FEFFF74BFE0B4C21880B48AA
:101D7000FFF75CFD21880A48FFF784FD6420FFF728
:101D800049FD044B1B78002BE3D1ECE7E809002464
:101D9000780A0024EB090024E009002440B200087E
:101DA00058B2000882B0074BD3F8F42042F0020288
:101DB000C3F8F420D3F8F43003F002030193019B3D
:101DC00002B070470044025870B58AB000230593F2
:101DD00006930793089309930368384A934204D003
:101DE000374A934245D00AB070BD364BD3F8E8204D
:101DF00042F40022C3F8E820D3F8E82002F40022DD
:101E00000092009AD3F8E02042F48072C3F8E020F8
:101E1000D3F8E02002F480720192019AD3F8E02016
:101E200042F00102C3F8E020D3F8E03003F00103F0
:101E30000293029B4FF40073059302240694082634
:101E4000099605A9204800F063FB01230593069439
:101E5000002507950895099605A91C4800F058FB30
:101E60002A462146342000F0B3F9342000F0E6F988
:101E7000B9E7144BD3F8F02042F01002C3F8F02079
:101E8000D3F8F02002F010020392039AD3F8E02076
:101E900042F00102C3F8E020D3F8E03003F0010380
:101EA0000493049B4FF4C063059302230693072316
:101EB000099305A9054800F02BFB94E7004C00406E
:101EC000001001400044025800200258000002584F
:101ED000FEE7FEE7FEE7FEE7FEE770477047704764
:101EE00008B500F04BF908BD08B5024802F0F4FB54
:101EF00008BD00BF780A00240120704708B503F030
:101F000021FA162303604FF0FF3008BD08B54FF0EB
:101F1000FF31FFF7F3FFFEE770B50C4616460025CC
:101F200006E0AFF30080214601F8010B01350C46B5
:101F3000B542F6DB304670BD70B50C46164600253E
:101F400004E014F8010BAFF300800135B542F8DB73
:101F5000304670BD4FF0FF3070474FF400534B6078
:101F600000207047012070470020704710B50346DD
:101F70000C4A0D490D48006840B10C480068034404
:101F8000521A934206D8094A136010BD0748084CFC
:101F90000460F2E703F0D6F90C2303604FF0FF3042
:101FA000F3E700BF0000082400040000040B002435
:101FB000580B0024264B1B6803F00F03062B06D892
:101FC000234A136823F00F0343F007031360214BE8
:101FD0001A6842F001021A6000221A6119681E4A4A
:101FE0000A401A601A4B1B6813F0080F06D0184AF3
:101FF000136823F00F0343F007031360154B00220F
:102000009A61DA611A62154999621549D9621549CE
:1020100019635A639963DA6319645A64196821F47D
:10202000802119601A66104B1A68104B1340B3F1E7
:10203000005F03D20E4B0122C3F808210D4B43F27F
:10204000D2021A600C4B4FF000629A60704700BFDA
:1020500000200052004402587FEDF6EA000202021E
:102060000000FF01800201010010005C0000FFFF82
:10207000008000510040005200ED00E0DFF834D055
:10208000FFF798FF002103E00B4B5B5843500431EE
:102090000A480B4B42189A42F6D30A4A02E0002340
:1020A00042F8043B084B9A42F9D303F051F9FFF789
:1020B00033FE704700000824ACB60008000000247E
:1020C000C0090024C0090024540B0024FEE70000CE
:1020D000104B1B780BB90120704710B504464FF424
:1020E0007A70B0FBF3F30C4A1068B0FBF3F000F029
:1020F000B3F868B90F2C01D901200AE0002221466B
:102100004FF0FF3000F064F8044B1C60002000E04A
:10211000012010BD08000024000000240C00002451
:1021200010B5032000F042F800F04CFE0F498B6917
:10213000C3F303230E4AD35C03F01F03D8408B691B
:1021400003F00F03D35C03F01F0320FA03F3094AE3
:102150001360094B18600020FFF7BAFF10B101248B
:10216000204610BD0446FFF71DFEF9E70044025863
:1021700068B200080400002400000024034B1B7810
:10218000034A11680B441360704700BF0800002425
:10219000080B0024014B1868704700BF080B00248F
:1021A000014B1868000C70470010005C0649CB68B2
:1021B00023F4E0631B041B0C000200F4E060034303
:1021C000024A1A43CA60704700ED00E00000FA05B9
:1021D00000B5174BDB68C3F30223C3F1070CBCF156
:1021E000040F28BF4FF0040C03F1040EBEF1060FDC
:1021F00014D9033B4FF0FF3E0EFA0CFC21EA0C0110
:1022000099400EFA03F322EA03031943002807DB7F
:102210000901C9B2074B19545DF804FB0023E9E733
:1022200000F00F000901C9B2034B1954F4E700BFD5
:1022300000ED00E000E400E014ED00E0002807DB22
:1022400000F01F02400901239340024A42F8203067
:10225000704700BF00E100E00138B0F1807F0BD291
:102260004FF0E0235861054AF02182F82310002046
:10227000986107221A6170470120704700ED00E065
:10228000042806D04FF0E022136923F00403136101
:1022900070474FF0E022136943F004031361704765
:1022A000002800F0298108B5024690F83530DBB2ED
:1022B000022B03D080234365012008BD03689048AA
:1022C00090498B4218BF83420CBF0121002166D088
:1022D0003030834263D01830834260D0183083425C
:1022E0005DD0183083425AD01830834257D018300E
:1022F000834254D000F55670834250D01830834248
:102300004DD0183083424AD01830834247D018301D
:10231000834244D01830834241D0183083423ED0AB
:10232000183083423BD0196821F00E011960136800
:10233000A0F5956073498B4218BF83426AD07249F9
:102340008B4267D018318B4264D018318B4261D0F8
:1023500018318B425ED018318B425BD018318B42E2
:1023600058D001F556718B4254D018318B4251D060
:1023700018318B424ED018318B424BD018318B42E2
:1023800048D018318B4245D018318B4242D0183199
:102390008B423FD0196821F0010119603EE0042012
:1023A00082F8350081BB584A93422DD018329342AF
:1023B0002AD01832934227D01832934224D01832B0
:1023C000934221D0183293421ED002F556729342A6
:1023D0001AD01832934217D01832934214D01832C0
:1023E000934211D0183293420ED0183293420BD040
:1023F0001832934208D01832934205D01A6822F05E
:1024000001021A60002058E71A6822F001021A60DF
:10241000002052E7196821F001011960136838485B
:1024200038498B4218BF834242D018318B423FD08B
:1024300018318B423CD018318B4239D018318B4245
:1024400036D018318B4233D018318B4230D001F561
:1024500056718B422CD018318B4229D018318B42C7
:1024600026D018318B4223D018318B4220D018311E
:102470008B421DD018318B421AD018318B4217D0A5
:1024800022498B4214D014318B4211D014318B422B
:102490000ED014318B420BD014318B4208D0143142
:1024A0008B4205D014318B4202D014318B4217D1AC
:1024B000116E0B6823F480730B60906DD36D03F085
:1024C0001F0101238B404360536E916E5960D36EA0
:1024D00033B1196821F480711960136F516F59601D
:1024E000002382F83430012382F83530136D2BB18C
:1024F000104698470020E0E6012070470020DCE607
:1025000010000240280002404000024008540258D7
:10251000F0B583B0002340E0092400E00024B4407B
:1025200044EA0C040235764E46F825404FF0B0449C
:10253000D4F88050D44325EA02064F6817F4803F50
:1025400001D042EA05064FF0B045C5F88060D5F8E5
:10255000845004EA05064F6817F4003F01D042EAB0
:1025600005064FF0B045C5F884602D6804EA0506FD
:102570004F6817F4801F01D042EA05064FF0B045BE
:102580002E606D682C404E6816F4001F01D042EAA0
:1025900005044FF0B042546001330A6832FA03F484
:1025A00000F0AB804FF0010C0CFA03FC1CEA0202B5
:1025B000F2D04C68651E112C18BF012D01D9122CC8
:1025C00013D185685E000324B44025EA0405CC6875
:1025D000B4402C438460446824EA0C0C4C68C4F377
:1025E00000149C4044EA0C044460C6684FEA430C63
:1025F000032505FA0CF5EC4326EA050E8D6805FA6D
:102600000CF545EA0E05C5604D68122D18BF022D68
:1026100012D1DE08083650F8267003F007054FEA9D
:10262000850E0F2505FA0EF527EA05070D6905FA4F
:102630000EF53D4340F82650056825404C6804F0EF
:10264000030404FA0CF42C4304604C6814F0805F1B
:10265000A2D02C4CD4F8F45045F00205C4F8F45044
:10266000D4F8F44004F002040194019C9D08AE1CCF
:10267000234C54F8267003F00304A6000F24B44042
:1026800027EA040C204CA0423FF448AF04F58064D4
:10269000A04222D004F58064A04220D004F58064DA
:1026A000A0421ED004F58064A0421CD004F58064D2
:1026B000A0421AD004F58064A04218D004F58064CA
:1026C000A04216D004F58064A04214D004F58064C2
:1026D000A0423FF421AF0A2421E701241FE702248E
:1026E0001DE703241BE7042419E7052417E7062444
:1026F00015E7072413E7082411E703B0F0BD00BF76
:1027000000040058004402580000025803691942AE
:1027100001D001207047002070470AB181617047E5
:102720000904816170470000134BDB6813F0040F4C
:1027300007D1114BDB6803F0070383421AD0012055
:10274000704710B50C4AD36823F007031843D060D4
:10275000FFF720FD0446084B5B6813F4005F07D1C8
:10276000FFF718FD001BB0F57A7FF4D9012000E0D7
:10277000002010BD0020704700480258002800F0DB
:10278000028338B50446036813F0010F25D09C4A34
:10279000136903F03803926A102B15D0182B0FD051
:1027A0006368B3F5803F3FD0002B53D1944B1A6838
:1027B00022F480321A601A6822F480221A6038E00B
:1027C00002F00302022AEBD18D4B1B6813F4003F89
:1027D00003D06368002B00F0D882236813F0020F47
:1027E00000F08B80864A1369926A13F038035AD03E
:1027F000182B55D0E368002B00F0C88080490A6888
:1028000022F0190213430B60FFF7C4FC05467C4B12
:102810001B6813F0040F40F09780FFF7BBFC401BD0
:102820000228F4D90320B7E2754A136843F48033D1
:10283000136063682BB3FFF7ADFC0546704B1B6854
:1028400013F4003FC9D1FFF7A5FC401B6428F5D95C
:102850000320A1E2B3F5A02F09D0694B1A6822F436
:1028600080321A601A6822F480221A60E1E7644B11
:102870001A6842F480221A601A6842F480321A60A0
:10288000D7E7FFF787FC05465D4B1B6813F4003F55
:10289000A3D0FFF77FFC401B6428F5D903207BE21F
:1028A00012F0030FA6D1564B1B6813F0040F03D090
:1028B000E368002B00F06B82FFF772FC41F2030328
:1028C000984212D82269402A07D04D494B6823F418
:1028D0007C3343EA02334B600FE0494A536823F4E8
:1028E0007C3343F40033536007E0454A536823F0D8
:1028F000FE43216943EA01635360236813F0100F1C
:1029000000F088803E4A136903F03803926A082B6E
:1029100054D0182B4ED0E369002B00F0B880384A11
:10292000136843F080031360FFF734FC0546344B13
:102930001B6813F4807F40F08880FFF72BFC401B5E
:102940000228F4D9032027E2FFF72AFC41F203030F
:10295000984212D82269402A07D029494B6823F4AB
:102960007C3343EA02334B60C7E7254A536823F4BC
:102970007C3343F400335360BFE7214A536823F0AC
:10298000FE43216943EA01635360B6E71C4A1368BA
:1029900023F001031360FFF7FDFB0546184B1B688E
:1029A00013F0040FA9D0FFF7F5FB401B0228F5D95F
:1029B0000320F1E102F00302012AACD1104B1B68A5
:1029C00013F4807F03D0E369802B40F0E281FFF7AE
:1029D000E7FB41F20303984214D8226A202A07D069
:1029E00007494B6823F0F84343EA82634B6011E0E8
:1029F000034A536823F0F84343F08043536009E0EF
:102A0000004402589A4AD36823F07C53216A43EA6F
:102A10000163D360236813F0080F60D06369002B53
:102A200049D0934A536F43F001035367FFF7B2FB5A
:102A300005468F4B5B6F13F0020F50D1FFF7AAFBD7
:102A4000401B0228F5D90320A6E1FFF7A9FB41F2BC
:102A50000303984212D8226A202A07D084494B687F
:102A600023F0F84343EA82634B60D3E7804A53681C
:102A700023F0F84343F080435360CBE77C4AD368AC
:102A800023F07C53216A43EA0163D360C2E7784AAA
:102A9000136823F080031360FFF77CFB0546744B3B
:102AA0001B6813F4807FB5D0FFF774FB401B02282E
:102AB000F5D9032070E16E4A536F23F00103536789
:102AC000FFF768FB05466A4B5B6F13F0020F06D0F9
:102AD000FFF760FB401B0228F5D903205CE1236867
:102AE00013F0200F29D0A3699BB1614A136843F406
:102AF00080531360FFF74EFB05465D4B1B6813F4D4
:102B0000005F1AD1FFF746FB401B0228F5D90320CE
:102B100042E1574A136823F480531360FFF73AFBEE
:102B20000546534B1B6813F4005F06D0FFF732FBDA
:102B3000401B0228F5D903202EE1236813F0040F6F
:102B400021D1636A002B00F02681494A126902F004
:102B50003802182A00F0EE80022B75D0444A136820
:102B600023F080731360FFF715FB0446404B1B688E
:102B700013F0007F00F0DC80FFF70CFB001B022845
:102B8000F4D9032008E13B4A136843F480731360CF
:102B9000FFF700FB0546374B1B6813F4807F06D117
:102BA000FFF7F8FA401B6428F5D90320F4E0A36886
:102BB000012B0AD00BBB2E4B1A6F22F001021A67B1
:102BC0001A6F22F004021A6704E0294A136F43F0D7
:102BD00001031367A36833B3FFF7DCFA0546244B00
:102BE0001B6F13F0020FACD1FFF7D4FA401B41F278
:102BF00088339842F3D90320CEE0052B09D01C4B33
:102C00001A6F22F001021A671A6F22F004021A6783
:102C1000E0E7174B1A6F42F004021A671A6F42F08E
:102C200001021A67D6E7FFF7B5FA0546104B1B6F8E
:102C300013F0020F85D0FFF7ADFA401B41F2883345
:102C40009842F3D90320A7E0094A136823F0807360
:102C50001360FFF79FFA0546054B1B6813F0007FD2
:102C60000AD0FFF797FA401B0228F5D9032093E01A
:102C700000440258004802584F4B996A4F4A0A4094
:102C8000A16AE06A41EA00110A439A62226B013AA2
:102C9000C2F30802616B0139490289B20A43A16B90
:102CA0000139090401F4FE010A43E16B0139090607
:102CB00001F0FE410A431A63DA6A22F00102DA6285
:102CC000596B3F4A0A40A16C42EAC1025A63DA6A70
:102CD00022F00C02216C0A43DA62DA6A22F0020264
:102CE000616C0A43DA62DA6A42F48032DA62DA6AE2
:102CF00042F40032DA62DA6A42F48022DA62DA6A94
:102D000042F00102DA621A6842F080721A60FFF73C
:102D100041FA0446284B1B6813F0007F06D1FFF7E9
:102D200039FA001B0228F5D9032035E0002033E0F2
:102D3000002031E0204A916A106B012B2DD001F068
:102D40000303A26A93422AD1C1F30511E36A9942AF
:102D500027D1C0F30802236B013B9A4223D1C0F371
:102D60004622636B013B9A421FD1C0F30642A36B1C
:102D7000013B9A421BD1C0F30660E36B013B9842D2
:102D800017D1002008E001207047012004E0012055
:102D900002E0012000E0002038BD0120FCE7012016
:102DA000FAE70120F8E70120F6E70120F4E7012027
:102DB000F2E70120F0E700BF004402580CFCFFFFDF
:102DC0000700FFFFF8B57E4B1B6903F03803102B9B
:102DD00000F0F280182B10D013B17A4C2046F8BDC9
:102DE000774B1B6813F0200F00F0E880744B1868D5
:102DF000C0F3C100744CC440F0E7714B9D6A05F00C
:102E000003059C6AC4F30514D86A00F001005B6BEB
:102E1000C3F3CC0303FB00F0FDF746FF0646002C8E
:102E2000DCD0012D76D0022D00F0A4800DB3204619
:102E3000FDF73AFF01466548FEF742F80446604B4D
:102E4000186BC0F30800FDF72FFF05464FF06451E3
:102E50003046FDF781FF01462846FDF775FE4FF02D
:102E60007E51FDF771FE01462046FDF775FF0446D1
:102E700071E0534B1B6813F0200F29D0504F3B6873
:102E8000C3F3C1035048D840FDF70EFF0546204666
:102E9000FDF70AFF01462846FEF712F80446386B94
:102EA000C0F30800FDF700FF05464FF064513046BF
:102EB000FDF752FF01462846FDF746FE4FF07E51D2
:102EC000FDF742FE01462046FDF746FF044642E07C
:102ED0002046FDF7E9FE01463D48FDF7F1FF0446B7
:102EE000374B186BC0F30800FDF7DEFE05464FF0C8
:102EF00064513046FDF730FF01462846FDF724FEB9
:102F00004FF07E51FDF720FE01462046FDF724FFDD
:102F1000044620E02046FDF7C7FE01462B48FDF79A
:102F2000CFFF0446264B186BC0F30800FDF7BCFE2C
:102F300005464FF064513046FDF70EFF0146284626
:102F4000FDF702FE4FF07E51FDF7FEFD01462046E3
:102F5000FDF702FF04461A4B1B6BC3F34623581CB4
:102F6000FDF7A2FE01462046FDF7AAFFFEF744F852
:102F7000044633E72046FDF797FE01461548FDF766
:102F80009FFF04460E4B186BC0F30800FDF78CFE44
:102F900005464FF064513046FDF7DEFE01462846F7
:102FA000FDF7D2FD4FF07E51FDF7CEFD01462046E4
:102FB000FDF7D2FE0446CEE7074C0FE7024C0DE7C3
:102FC0000044025800093D000090D0030024744AD8
:102FD0000024744C20BCBE4B40787D01002800F0DA
:102FE000328170B50D4604469B4B1B6803F00F03FE
:102FF0008B420BD2984A136823F00F030B431360E4
:10300000136803F00F038B4240F01F81236813F015
:10301000040F0CD02269914B9B6903F070039A4214
:1030200005D98E498B6923F070031A438A6123689E
:1030300013F0080F0CD06269884BDB6903F0700352
:103040009A4205D98549CB6923F070031A43CA61B6
:10305000236813F0100F0CD0A269804BDB6903F4D6
:10306000E0639A4205D97D49CB6923F4E0631A43B2
:10307000CA61236813F0200F0CD0E269774B1B6AFA
:1030800003F070039A4205D974490B6A23F0700368
:103090001A430A62236813F0020F0CD0E2686F4BE8
:1030A0009B6903F00F039A4205D96C498B6923F0A1
:1030B0000F031A438A61236813F0010F41D0674A56
:1030C000936923F47063A1680B4393616368022BD7
:1030D0000AD0032B27D0012B2CD0604A126812F0A3
:1030E000040F06D10120ADE0126812F4003F00F099
:1030F000AE805A490A6922F0070213430B61FFF7B9
:1031000049F80646554B1B6903F038036268B3EB78
:10311000C20F16D0FFF73EF8801B41F28833984269
:10312000F0D903208EE04D4A126812F0007FE0D102
:10313000012087E0494A126812F4807FD9D101202A
:1031400080E0236813F0020F0CD0E268434B9B69C8
:1031500003F00F039A4205D240498B6923F00F0315
:103160001A438A613C4B1B6803F00F03AB420AD938
:10317000394A136823F00F032B431360136803F0DD
:103180000F03AB4265D1236813F0040F0CD0226902
:10319000324B9B6903F070039A4205D22F498B6929
:1031A00023F070031A438A61236813F0080F0CD0D0
:1031B00062692A4BDB6903F070039A4205D2274902
:1031C000CB6923F070031A43CA61236813F0100F10
:1031D0000CD0A269214BDB6903F4E0639A4205D26B
:1031E0001E49CB6923F4E0631A43CA61236813F0D4
:1031F000200F0CD0E269194B1B6A03F070039A424E
:1032000005D216490B6A23F070031A430A62FFF7CE
:10321000D9FD12498B69C3F30323114AD35C03F030
:103220001F03D8408B6903F00F03D35C03F01F0327
:1032300020FA03F30B4A13600B4B18600B4B186812
:10324000FEF746FF70BD012070470120FAE701201C
:10325000F8E70120F6E700BF0020005200440258C2
:1032600068B2000804000024000000240C000024C0
:1032700008B5FFF7A7FD0B4A9369C3F303230A4977
:10328000CB5C03F01F0320FA03F3926902F00F02F4
:10329000885C00F01F0023FA00F0044A1060044A22
:1032A000136008BD0044025868B2000804000024FE
:1032B0000000002408B5FFF7DBFF054BDB69C3F313
:1032C0000213044AD35C03F01F03D84008BD00BFBB
:1032D0000044025868B2000808B5FFF7C9FF054B63
:1032E000DB69C3F30223044AD35C03F01F03D84015
:1032F00008BD00BF0044025868B20008404B9B6AFA
:1033000003F00303032B79D070B505460E463C4A03
:10331000136823F080631360FEF73CFF0446384BCC
:103320001B6813F0006F06D0FEF734FF031B022B5F
:10333000F5D9032070BD324B9A6A22F47C32296899
:1033400042EA01329A626A68013AC2F30802A96845
:103350000139490289B20A43E9680139090401F4D3
:10336000FE010A4329690139090601F0FE410A43B9
:103370009A63DA6A22F0C00269690A43DA62DA6A99
:1033800022F02002A9690A43DA62DA6A22F0100206
:10339000DA62D96B1B4A0A40E96942EAC102DA6380
:1033A000DA6A42F01002DA62C6B91A46DB6A43F4FE
:1033B0000023D362124A136843F080631360FEF760
:1033C000E9FE04460E4B1B6813F0006F14D1FEF7A4
:1033D000E1FE001B0228F5D90320ABE7012E05D042
:1033E000074AD36A43F40013D362E3E7044AD36A7B
:1033F00043F48013D362DDE700209BE70120704790
:10340000004402580700FFFF404B9B6A03F0030390
:10341000032B79D070B505460E463C4A136823F05D
:1034200080531360FEF7B6FE0446384B1B6813F05A
:10343000005F06D0FEF7AEFE031B022BF5D903207A
:1034400070BD324B9A6A22F07C72296842EA0152BE
:103450009A626A68013AC2F30802A968013949020E
:1034600089B20A43E9680139090401F4FE010A43FB
:1034700029690139090601F0FE410A431A64DA6A32
:1034800022F4406269690A43DA62DA6A22F400725D
:10349000A9690A43DA62DA6A22F48072DA62596C44
:1034A0001B4A0A40E96942EAC1025A64DA6A42F4F4
:1034B0008072DA62C6B91A46DB6A43F48003D362CB
:1034C000124A136843F080531360FEF763FE04460C
:1034D0000E4B1B6813F0005F14D1FEF75BFE001B60
:1034E0000228F5D90320ABE7012E05D0074AD36A9D
:1034F00043F08073D362E3E7044AD36A43F40003E2
:10350000D362DDE700209BE70120704700440258AA
:103510000700FFFFF8B50446036813F0006F30D0D2
:10352000436EB3F5001F26D00ED8EBB1B3F5801F64
:1035300007D102210430FFF7E1FE054645B12E46D2
:1035400021E0012635461EE0B3F5401F09D10025D4
:10355000954A136D23F44013616E0B4313650026E7
:1035600011E0012635460EE08F4AD36A43F400335A
:10357000D3620025ECE702212430FFF745FF054622
:10358000DCE700263546236813F4807F14D0636D92
:10359000042B30D8DFE803F0032228080800824A11
:1035A000D36A43F40033D36245BB7F4A136D23F0E3
:1035B0000703616D0B431365236813F4007F2FD05D
:1035C000A36D802B49D01ED8002B40D0402B17D1A3
:1035D0000021201DFFF792FE054619E00021201D65
:1035E000FFF78CFE0546DFE7002104F12400FFF71A
:1035F0000BFF0546D8E701263546DDE72E46DBE71B
:10360000012635460CE0C02B02D0B3F5807F1BD1DC
:1036100055BB654A136D23F4E073A16D0B4313652D
:10362000236813F4806F45D0D4F8A430B3F5800F2D
:1036300038D01ED883B3B3F5001F17D10021201D49
:10364000FFF75CFE05461AE001263546E8E7564AD4
:10365000D36A43F40033D362DAE7002104F1240093
:10366000FFF7D2FE0546D3E72E46D9E701263546B9
:1036700020E0B3F5C00F02D0B3F5000F09D1C5B9F2
:10368000494A936D23F46003D4F8A4100B43936567
:1036900010E0012635460DE0434AD36A43F4003377
:1036A000D362ECE7002104F12400FFF7ADFE0546EC
:1036B000E5E72E46236813F4006F23D0D4F8A83032
:1036C000B3F1007F41D00DD8002B38D0B3F1807F0B
:1036D00005D10021201DFFF711FE054608E0012657
:1036E00035460FE0B3F1407F02D0B3F1806F23D1B4
:1036F000002D31D12C4A936D23F0E063D4F8A8104B
:103700000B439365236813F0007F2ED0A36C202B0E
:103710003FD026D833B1102B20D1234AD36A43F4AB
:103720000033D362002D3AD11F4AD36C23F030030B
:10373000A16C0B43D36418E001263546E2E71A4A30
:10374000D36A43F40033D362D2E7002104F12400AA
:10375000FFF75AFE0546CBE72E46D3E7012635464E
:1037600003E0302BDED001263546236813F4805F5A
:103770002BD0E36DB3F5005F4CD017D8002B43D0AE
:10378000B3F5805F0DD10021201DFFF7B7FD054681
:1037900012E00221201DFFF7B1FD0546C2E72E46CB
:1037A000E3E70126354610E000440258B3F5405FD8
:1037B00002D0B3F5804F24D1002D32D1754A136D5C
:1037C00023F4E043E16D0B431365236813F4005FBA
:1037D00037D0236EB3F5003F51D027D83BB1B3F5B6
:1037E000803F20D10121201DFFF788FD0546002DD7
:1037F0004CD1684A136D23F4E023216E0B4313650B
:103800001FE001263546E0E7624AD36A43F40033FD
:10381000D362D1E7002104F12400FFF7F5FD05464E
:10382000CAE72E46D1E7012635460AE0B3F5802FD8
:10383000DDD0B3F5A02FDAD0B3F5403FD7D00126C5
:103840003546236813F4804F30D0D4F8AC30B3F150
:10385000005F44D01FD83BB1B3F1805F18D1012184
:10386000201DFFF74BFD0546002D3FD1494A936DC2
:1038700023F0E043D4F8AC100B43936516E001212C
:1038800004F12400FFF7C0FD0546B0E72E46D8E757
:10389000012635460AE0B3F1804FE5D0B3F1A04FE1
:1038A000E2D0B3F1405FDFD001263546236813F440
:1038B000004F09D0E36EB3F1805F19D0B3F1005F20
:1038C00024D0D3B101263546236813F0807F32D04F
:1038D000636C032B59D8DFE803F02621522601211F
:1038E00004F12400FFF790FD0546BDE72E46DDE715
:1038F000284AD36A43F40033D3626DB9254A136D65
:1039000023F04053E16E0B431365DDE70121201DD9
:10391000FFF7F4FC0546F0E72E46D5E71D4AD36ACB
:1039200043F40033D3629DBB1A4AD36C23F00303E4
:10393000616C0B43D364236813F4800F2CD123688C
:1039400013F0010F00F0A380A36F282B00F29D80DD
:10395000DFE803F08B9B9B9B9B9B9B9B869B9B9B8E
:103960009B9B9B9B949B9B9B9B9B9B9B8B9B9B9BBE
:103970009B9B9B9B8B9B9B9B9B9B9B9B8B00022165
:10398000201DFFF7BBFC0546CDE701263546D2E7F3
:103990002E46D0E7004402588F4A136843F48073E0
:1039A0001360FEF7F7FB07468B4B1B6813F4807F11
:1039B00005D1FEF7EFFBC01B6428F5D90325002DC8
:1039C0004AD1864B1B6FD4F8B020534013F4407F8C
:1039D0000CD0824B1A6F22F44072196F41F480317F
:1039E0001967196F21F4803119671A67D4F8B0305C
:1039F000B3F5807F15D08DBBD4F8B03003F440729E
:103A0000B2F5407F1ED0754A136923F47C531361CD
:103A100072490B6FD4F8B020C2F30B0213430B674B
:103A20008DE7FEF7B7FB07466C4B1B6F13F0020FD9
:103A3000E1D1FEF7AFFBC01B41F288339842F3D9C6
:103A40000325D8E76548026922F47C52644901EAFB
:103A5000131313430361DBE72E4670E72E466EE730
:103A60000121201DFFF74AFC0546E5B95B4A536D6D
:103A700023F03803A16F0B43536508E0012104F1E3
:103A80002400FFF7C1FC0546EFE701263546236811
:103A900013F0020F16D0636F052B27D8DFE803F071
:103AA0000A051F0A0A0A2E46F1E70121201DFFF729
:103AB00025FC0546EDB9494A536D23F00703616FB4
:103AC0000B435365236813F0040F22D0D4F89030D1
:103AD000052B43D8DFE803F0140F3B141414012125
:103AE00004F12400FFF790FC0546E3E70126354684
:103AF000E8E72E46E6E70121201DFFF7FFFB05461C
:103B00007DBB364A936D23F00703D4F890100B4326
:103B10009365236813F0200F33D0D4F88C30B3F1C1
:103B2000005F4CD022D83BB1B3F1805F1BD10021A4
:103B3000201DFFF7E3FB0546002D47D1274A536DB3
:103B400023F0E043D4F88C100B43536519E00121B6
:103B500004F12400FFF758FC0546D1E7012635465D
:103B6000D7E72E46D5E7012635460AE0B3F1804F68
:103B7000E2D0B3F1A04FDFD0B3F1405FDCD001263B
:103B80003546236813F0400F37D0D4F89830B3F59A
:103B9000006F52D026D83BB1B3F5806F18D1002109
:103BA000201DFFF7ABFB0546002D4DD10B4A936D51
:103BB00023F4E053D4F898100B4393651DE00221E1
:103BC00004F12400FFF720FC0546B5E72E46D8E7B0
:103BD0000126354611E000BF004802580044025853
:103BE000CFFFFF00B3F5805FDED0B3F5A05FDBD081
:103BF000B3F5406FD8D001263546236813F0800F07
:103C000032D0D4F89C30B3F5804F00F09D8020D89E
:103C10003BB1B3F5005F19D10021201DFFF76EFB0A
:103C20000546002D40F09780A34A936D23F460432E
:103C3000D4F89C100B43936516E0022104F1240094
:103C4000FFF7E2FB0546AFE72E46D6E701263546ED
:103C50000AE0B3F5004FE4D0B3F5204FE1D0B3F55F
:103C6000C04FDED001263546236813F0080F0CD074
:103C7000D4F88030B3F5805F6FD08F4A536D23F452
:103C80004053D4F880100B435365236813F0100F92
:103C90000CD0D4F89430B3F5807F67D0864A936D0A
:103CA00023F44073D4F894100B439365236813F402
:103CB000002F0BD0D4F8A030B3F5803F6ED0B3F511
:103CC000003F61D0002B5AD001263546236813F4FB
:103CD000802F0CD0D4F88430B3F5001F76D0B3F524
:103CE000401F69D0B3F5801F61D001263546236897
:103CF00013F4803F07D0E36C002B70D0B3F5803F06
:103D00007BD001263546236813F0005F7DD1236800
:103D100013F4003F00F08680E36FB3F5807F00F07E
:103D2000BA807CD9B3F5007F03D0B3F5407F40F073
:103D3000B080002D40F0B5805F4A536D23F440738E
:103D4000E16F0B4353656DE0022104F12400FFF79E
:103D50005BFB054665E72E4686E7022104F1240059
:103D6000FFF752FB002888D0012686E7022104F1E4
:103D70002400FFF749FB002890D001268EE70021A0
:103D8000201DFFF7BBFA05467DB94B4A936D23F41E
:103D90004033D4F8A0100B43936597E7022104F158
:103DA0002400FFF731FB0546EEE72E468EE7424A38
:103DB000D36A43F40033D3627DB93F4A536D23F491
:103DC0004013D4F884100B43536590E7012104F1AC
:103DD0002400FFF719FB0546EEE72E4687E7364A33
:103DE000D36A43F40033D3626DB9334AD36C23F4FE
:103DF0008033E16C0B43D36485E70221201DFFF77C
:103E00007DFA0546F0E72E467DE7022104F1240005
:103E1000FFF7FAFA00283FF47AAF012677E7002B84
:103E200087D00126236813F4801F06D0224A136D21
:103E300023F00043216F0B431365236813F0805F69
:103E400007D01D4A136923F48043D4F8B4100B4300
:103E50001361236813F4001F06D0174A136D23F073
:103E60008073A16E0B431365236813F0804F09D054
:103E7000114B1A6922F400421A611A69D4F8B81079
:103E80000A431A612368002B0DDB06B10126304678
:103E9000F8BD0126C6E7084AD36A43F40033D3626B
:103EA00047E72E46BEE7044AD36C23F04053216D0A
:103EB0000B43D364E9E700BF0044025808B5FFF79D
:103EC000D7F9054B1B6AC3F30213044AD35C03F012
:103ED0001F03D84008BD00BF0044025868B2000864
:103EE0002DE9F0410446864B9D6A9E6AC6F305366D
:103EF000D86AC0F30010DB6BC3F3CC0303FB00F004
:103F0000FCF7D2FE002E00F0F58005F00305074611
:103F1000012D79D0022D00F0CB800DB33046FCF797
:103F2000C3FE01467748FCF7CBFF0546744B986B00
:103F3000C0F30800FCF7B8FE06464FF0645138465F
:103F4000FCF70AFF01463046FCF7FEFD4FF07E51BC
:103F5000FCF7FAFD01462846FCF7FEFE054674E034
:103F6000674B1B6813F0200F2CD0DFF89481D8F832
:103F70000030C3F3C1036448D840FCF795FE054602
:103F80003046FCF791FE01462846FCF799FF0546AE
:103F9000D8F83800C0F30800FCF786FE06464FF05C
:103FA00064513846FCF7D8FE01463046FCF7CCFD9C
:103FB0004FF07E51FCF7C8FD01462846FCF7CCFEC9
:103FC000054642E03046FCF76FFE01464F48FCF7DD
:103FD00077FF05464A4B986BC0F30800FCF764FE78
:103FE00006464FF064513846FCF7B6FE01463046AF
:103FF000FCF7AAFD4FF07E51FCF7A6FD01462846CE
:10400000FCF7AAFE054620E03046FCF74DFE0146CF
:104010003C48FCF755FF0546394B986BC0F3080048
:10402000FCF742FE06464FF064513846FCF794FE1A
:1040300001463046FCF788FD4FF07E51FCF784FDC9
:1040400001462846FCF788FE05462D4EB06BC0F3AE
:104050004620FCF729FE4FF07E51FCF775FD014626
:104060002846FCF72DFFFCF7C7FF2060B06BC0F3BC
:104070000640FCF719FE4FF07E51FCF765FD014646
:104080002846FCF71DFFFCF7B7FF6060B06BC0F37C
:104090000660FCF709FE4FF07E51FCF755FD014626
:1040A0002846FCF70DFFFCF7A7FFA060BDE8F081F4
:1040B0003046FCF7F9FD01461548FCF701FF0546BF
:1040C0000F4B986BC0F30800FCF7EEFD06464FF06F
:1040D00064513846FCF740FE01463046FCF734FD9B
:1040E0004FF07E51FCF730FD01462846FCF734FEC8
:1040F0000546AAE7002323606360A360D6E700BFFC
:10410000004402580024744A0090D0030024744CE8
:1041100020BCBE4B2DE9F0410446864B9D6A9E6A49
:10412000C6F30556D86AC0F300205B6CC3F3CC031A
:1041300003FB00F0FCF7B8FD002E00F0F58005F061
:1041400003050746012D79D0022D00F0CB800DB379
:104150003046FCF7A9FD01467748FCF7B1FE05465D
:10416000744B186CC0F30800FCF79EFD06464FF038
:1041700064513846FCF7F0FD01463046FCF7E4FC9C
:104180004FF07E51FCF7E0FC01462846FCF7E4FDC9
:10419000054674E0674B1B6813F0200F2CD0DFF846
:1041A0009481D8F80030C3F3C1036448D840FCF7C9
:1041B0007BFD05463046FCF777FD01462846FCF7B7
:1041C0007FFE0546D8F84000C0F30800FCF76CFD00
:1041D00006464FF064513846FCF7BEFD01463046B6
:1041E000FCF7B2FC4FF07E51FCF7AEFC01462846CE
:1041F000FCF7B2FD054642E03046FCF755FD0146AE
:104200004F48FCF75DFE05464A4B186CC0F30800AA
:10421000FCF74AFD06464FF064513846FCF79CFD1A
:1042200001463046FCF790FC4FF07E51FCF78CFCC9
:1042300001462846FCF790FD054620E03046FCF795
:1042400033FD01463C48FCF73BFE0546394B186CF4
:10425000C0F30800FCF728FD06464FF064513846CD
:10426000FCF77AFD01463046FCF76EFC4FF07E51BC
:10427000FCF76AFC01462846FCF76EFD05462D4E0C
:10428000306CC0F34620FCF70FFD4FF07E51FCF779
:104290005BFC01462846FCF713FEFCF7ADFE2060F0
:1042A000306CC0F30640FCF7FFFC4FF07E51FCF78A
:1042B0004BFC01462846FCF703FEFCF79DFE6060C0
:1042C000306CC0F30660FCF7EFFC4FF07E51FCF75A
:1042D0003BFC01462846FCF7F3FDFCF78DFEA06091
:1042E000BDE8F0813046FCF7DFFC01461548FCF7DD
:1042F000E7FD05460F4B186CC0F30800FCF7D4FC33
:1043000006464FF064513846FCF726FD014630461C
:10431000FCF71AFC4FF07E51FCF716FC01462846CC
:10432000FCF71AFD0546AAE7002323606360A3603B
:10433000D6E700BF004402580024744A0090D0031E
:104340000024744C20BCBE4B0268136823F49073A5
:10435000136002689168044B0B4093602023C0F8FF
:1043600084300023C3667047FEFFFFEFD0F884302F
:10437000202B7ED1002A18BF00297CD090F87C30F9
:10438000012B7AD0012380F87C308165A0F85C2075
:10439000A0F85E200023C3668368B3F5805F06D073
:1043A000A3B9036973B9FF23A0F8603014E003696F
:1043B00023B940F2FF13A0F860300DE0FF23A0F80E
:1043C000603009E07F23A0F8603005E0B3F1805F42
:1043D00021D00023A0F860300023C0F888302223C9
:1043E000C0F8843001688B6843F001038B60436E32
:1043F000B3F1005F19D08368B3F5805F33D0204BF1
:10440000C366002380F87C300268136843F490731D
:1044100013600020704703691BB97F23A0F8603048
:10442000DAE73F23A0F86030D6E7B0F8683093426F
:10443000E1D88368B3F5805F0FD0124BC3660023C9
:1044400080F87C300268136843F48073136002685C
:10445000936843F080539360DBE70369002BECD152
:10446000094BC366EBE70369002BC8D1074BC36652
:10447000C7E702207047012070470220704700BF45
:10448000AF4400087D45000829460008174500088C
:10449000704708B501680A6822F040020A602022CD
:1044A000C0F8802000220267FFF7F2FF08BD08B5C0
:1044B000B0F86030D0F88420222A05D002689369D1
:1044C00043F00803936108BD0268516ADBB2826D54
:1044D0000B401370836D01338365B0F85E309BB27F
:1044E000013B9BB2A0F85E30B0F85E309BB2002B6F
:1044F000E9D10268136823F490731360026893682B
:1045000023F0010393602023C0F884300023C366A6
:10451000FDF72AFBD7E708B5B0F86020D0F8843063
:10452000222B05D00268936943F00803936108BD0C
:1045300003685B6A816D13400B80836D0233836572
:10454000B0F85E309BB2013B9BB2A0F85E30B0F891
:104550005E309BB2002BEAD10268136823F490739B
:1045600013600268936823F0010393602023C0F86E
:1045700084300023C366FDF7F7FAD8E770B5044628
:10458000B0F86060D0F88430222B05D002689369BF
:1045900043F00803936170BDB0F8685001E0013D3D
:1045A000ADB23DB32368596AF3B2A26D0B401370EC
:1045B000A36D0133A365B4F85E309BB2013B9BB29F
:1045C000A4F85E30B4F85E309BB2002BE7D12268CD
:1045D000136823F48073136022689168104B0B40BA
:1045E00093602023C4F884300023E3662046FDF75F
:1045F000BBFAD4E7B4F85E309BB2002BCBD0B4F852
:1046000068209A42C7D92268936823F08053936048
:10461000044BE3662268136843F020031360BAE793
:10462000FEFFFFEFAF44000870B50446B0F86060CD
:10463000D0F88430222B05D00268936943F0080338
:10464000936170BDB0F8685001E0013DADB235B383
:1046500023685B6AA26D33401380A36D0233A365A8
:10466000B4F85E309BB2013B9BB2A4F85E30B4F864
:104670005E309BB2002BE8D12268136823F480736C
:10468000136022689168114B0B4093602023C4F89B
:1046900084300023E3662046FDF766FAD5E7B4F8D8
:1046A0005E309BB2002BCCD0B4F868209A42C8D9B7
:1046B0002268936823F080539360054BE366226879
:1046C000136843F020031360BBE700BFFEFFFFEF5A
:1046D000174500087047000070B504460168CB69B3
:1046E0000D68886840F60F021A4008D113F0200FB9
:1046F00005D015F0200F30D110F0805F2DD12AB1F8
:104700006D4A02402FD16D4E35422CD113F4801FDB
:1047100003D010F4800F40F0B48013F0800F07D066
:1047200015F0800F40F0B48010F4000F40F0B0801E
:1047300013F0400F03D015F0400F40F0B08013F499
:10474000000F03D015F0804F40F0AD8013F0807F54
:1047500002D0002DC0F2AB8070BDE36E002BFBD009
:1047600020469847F8E713F0010F09D015F4807F31
:1047700006D001260E62D4F888103143C4F88810A0
:1047800013F0020F0BD010F0010F08D021680226A1
:104790000E62D4F8881041F00401C4F8881013F0B8
:1047A000040F0BD010F0010F08D0216804260E6210
:1047B000D4F8881041F00201C4F8881013F0080FF3
:1047C0000BD015F0200F00D13AB1226808211162F8
:1047D000D4F888200A43C4F8882013F4006F0CD062
:1047E00015F0806F09D022684FF400611162D4F88F
:1047F000882042F02002C4F88820D4F88820002ABB
:10480000AAD013F0200F09D015F0200F02D110F01C
:10481000805F03D0E36E0BB120469847D4F8882020
:1048200023689B6813F0400F02D112F0280F21D0AB
:104830002046FFF789FD23689A6812F0400F15D0D3
:104840009A6822F040029A60A36F5BB11C4A1A6515
:10485000A06FFDF725FD00283FF47EAFA06F036D2C
:10486000984779E72046FFF735FF75E72046FFF7C1
:1048700031FF71E72046FFF72DFF0023C4F8883091
:104880006AE74FF480130B62204600F0EFFC63E709
:10489000236F002B3FF460AF204698475CE720462B
:1048A000FFF7F7FD58E7204600F0E2FC54E720460A
:1048B00000F0DDFC50E700BF010000102001000403
:1048C000C548000808B5806B0023A0F85E30A0F84A
:1048D0005630FFF7FFFE08BD70B586B0044601688C
:1048E00083680269134342691343C2691343426EEA
:1048F00013430868884A02401A430A6022685368D2
:1049000023F44053E1680B435360A1692268834B51
:104910009A4201D0236A19439068814B03400B43AC
:1049200093602268D36A23F00F03616A0B43D3625A
:1049300022687C4B9A4221D07B4B9A4200F08C80BB
:104940007A4B9A4200F0A280794B9A4200F0B580EF
:10495000784B9A4200F0C880774B9A4200F0F4807E
:10496000764B9A4200F01981754B9A4200F02C81E7
:104970006A4B9A4200F03F81802333E0714B5B6DBC
:1049800003F03803282B65D8DFE813F02900640012
:104990006400640064006400640064004D0164000D
:1049A0006400640064006400640064002B00640020
:1049B0006400640064006400640064005E006400DD
:1049C00064006400640064006400640060006400CB
:1049D00064006400640064006400640062000123F9
:1049E00000E008234D498A4200F02F81E069B0F5CC
:1049F000004F00F0AF81202B00F20782202B00F245
:104A00005182DFE813F01E0224024F024F022702F8
:104A10004F024F024F022C024F024F024F024F0231
:104A20004F024F024F0231024F024F024F024F021C
:104A30004F024F024F024F024F024F024F024F02EE
:104A40004F024F024F023D021023CBE72023C9E75C
:104A50004023C7E78023C5E73A4B5B6D03F00703AC
:104A6000052B11D8DFE813F00600E10008000A006A
:104A70000C000E000023B5E70823B3E71023B1E7CD
:104A80002023AFE74023ADE78023ABE72D4B5B6DE1
:104A900003F00703052B0ED8DFE803F003C9050771
:104AA000090B00239EE708239CE710239AE72023A5
:104AB00098E7402396E7802394E7224B5B6D03F051
:104AC0000703052B0ED8DFE803F003B40507090B35
:104AD000002387E7082385E7102383E7202381E766
:104AE00040237FE780237DE7164B5B6D03F00703D0
:104AF000052B0ED8DFE803F0039F0507090B002301
:104B000070E708236EE710236CE720236AE7402351
:104B100068E7802366E700BFF369FFCF000C005809
:104B2000FFF4FF1100100140004400400048004025
:104B3000004C00400050004000140140007800404C
:104B4000007C0040004402587D4B5B6D03F038034D
:104B5000282B20D8DFE803F0151F1F1F1F1F1F1F62
:104B6000711F1F1F1F1F1F1F171F1F1F1F1F1F1F0B
:104B7000191F1F1F1F1F1F1F1B1F1F1F1F1F1F1F4F
:104B80001D0001232EE708232CE710232AE720230A
:104B900028E7402326E7802324E7694B5B6D03F079
:104BA0000703052B0ED8DFE803F0034A0507090BBE
:104BB000002317E7082315E7102313E7202311E745
:104BC00040230FE780230DE75D4B5B6D03F0070388
:104BD000052B0ED8DFE803F003350507090B00238A
:104BE00000E70823FEE61023FCE62023FAE6402334
:104BF000F8E68023F6E603F50E339B6D03F007031A
:104C0000052B0ED8DFE803F0031F0507090B02236D
:104C1000E8E60823E6E61023E4E62023E2E6402364
:104C2000E0E68023DEE60423DCE60423DAE6042360
:104C3000D8E60423D6E60423D4E60423D2E60423EC
:104C4000D0E60423CEE60423CCE6202B27D8022B83
:104C5000C0F01A81023B1E2B00F21881DFE813F02E
:104C60005000160156001601160116015B001601D0
:104C70001601160116011601160116016000160133
:104C8000160116011601160116011601160116016C
:104C90001601160116011601160116016C00402BB3
:104CA0002CD14FF40040626A264B33F81220B0FB3F
:104CB000F2F3656805EB4501994200F2E980B3EB38
:104CC000053F00F2E780002633463146FCF7B4F991
:104CD000090241EA106100026B08C0182A463346F7
:104CE00041F10001FCF7A8F9A0F54072164B9A4279
:104CF00000F2D2802368D8603046D4E00120D2E0B0
:104D0000FFF7DCF80028CED10020CCE003A8FFF7A5
:104D1000E7F80498F6E76846FFF7FCF90198F1E731
:104D2000074B1B6813F0200F08D0054B1B68C3F31B
:104D3000C1030648D840E5E70548B4E70348B2E7B1
:104D40000044025878B20008FFFC0F000090D00326
:104D500000093D00202B15D8202B00F29F80DFE8B2
:104D600003F031379D9D3A9D9D9D3F9D9D9D9D9D4D
:104D70009D9D449D9D9D9D9D9D9D9D9D9D9D9D9DBC
:104D80009D9D5000402B1BD1626A4D4B33F8123071
:104D9000B0FBF3F06268530803EB4000B0FBF2F0A5
:104DA00080B2A0F110024FF6EF739A4278D820F04B
:104DB0000F03C0F3420018432368D860002072E05C
:104DC000012070E0FEF776FA0028DDD100206AE0CD
:104DD000FEF782FAF8E703A8FFF782F80498F3E7F2
:104DE0006846FFF797F90198EEE7364B1B6813F01A
:104DF000200F08D0334B1B68C3F3C1033248D8409F
:104E0000E2E73248C0E73048BEE7402B17D14FF405
:104E10000040626A2A4B33F81230B0FBF3F063684B
:104E200000EB5300B0FBF3F080B2A0F110024FF69C
:104E3000EF739A4241D82368D860002033E0012004
:104E400031E0FEF737FA0028E3D100202BE0FEF72F
:104E500043FAF8E703A8FFF743F80498F3E7684636
:104E6000FFF758F90198EEE7164B1B6813F0200F77
:104E700008D0144B1B68C3F3C1031348D840E2E7C2
:104E80001248C6E71048C4E701200CE001200AE000
:104E9000012008E0012006E0012004E0012002E0FA
:104EA000012000E001200123A4F86A30A4F8683052
:104EB0000023E366236706B070BD0120F3E700BF5F
:104EC00078B20008004402580090D00300093D0069
:104ED000836A13F0010F06D00268536823F400338D
:104EE000C16A0B435360836A13F0020F06D0026855
:104EF000536823F48033016B0B435360836A13F0D0
:104F0000040F06D00268536823F48023416B0B43DF
:104F10005360836A13F0080F06D00268536823F4C5
:104F20000043816B0B435360836A13F0100F06D06C
:104F30000268936823F48053C16B0B439360836AC8
:104F400013F0200F06D00268936823F40053016C1D
:104F50000B439360836A13F0400F0AD002685368D2
:104F600023F48013416C0B435360436CB3F5801FF3
:104F70000BD0836A13F0800F06D00268536823F4C5
:104F80000023C16C0B43536070470268536823F4DD
:104F9000C003816C0B435360EBE72DE9F8430546F2
:104FA0000F4616469946DDF820802C68E46937EAFA
:104FB00004030CBF4FF0010C4FF0000CB44541D17D
:104FC000B8F1FF3FF1D0FDF7E5F8A0EB090040454F
:104FD00024D8B8F1000F21D02B681A6812F0040F02
:104FE000E3D0DA6912F4006FDFD04FF400621A6286
:104FF0002A68136823F4D07313602A68936823F037
:10500000010393602023C5F88030C5F88430C5F8CB
:105010008830002385F87C30032014E02A68136868
:1050200023F4D07313602A68936823F0010393601C
:105030002023C5F88030C5F88430002385F87C3003
:10504000032000E00020BDE8F8832DE9F04182B0A4
:105050001E46D0F88030202B58D104460D4690468D
:10506000002A18BF002955D090F87C30012B53D06E
:10507000012380F87C300023C0F888302123C0F859
:105080008030FDF787F80746A4F85480A4F85680CE
:10509000A368B3F5805F05D04FF00008002384F8C3
:1050A0007C3012E0236913B14FF00008F6E7A84600
:1050B0000025F3E715F8012B23689A62B4F856200F
:1050C00092B2013A92B2A4F85620B4F856309BB28C
:1050D00083B100963B46002280212046FFF75DFF0A
:1050E000E0B9002DE6D138F8023B2268C3F308038B
:1050F0009362E3E700963B46002240212046FFF7FB
:105100004CFF68B92023C4F8803000E0022002B0D0
:10511000BDE8F0810120FAE70220F8E70320F6E776
:105120000320F4E730B583B004460023C0F888308C
:10513000FDF730F805462268126812F0080F0ED10C
:1051400023681B6813F0040F17D12023C4F88030A4
:10515000C4F88430002084F87C0003B030BD6FF0C8
:105160007E430093034600224FF400112046FFF7D0
:1051700014FF0028E4D00320EFE76FF07E43009394
:105180002B4600224FF480012046FFF706FF00283F
:10519000DBD00320E1E778B310B50446D0F88030C7
:1051A0000BB32423C4F880302268136823F0010372
:1051B00013602046FFF790FB012813D0A36ABBB908
:1051C0002268536823F4904353602268936823F065
:1051D0002A0393602268136843F00103136020469A
:1051E000FFF7A0FF10BD80F87C30FCF7EDFDD8E79D
:1051F0002046FFF76DFEE3E70120704784B00346C9
:10520000184A92E8030004AA02E9030016496A4614
:1052100003C982E803005A6E32B90122A3F86A205A
:10522000A3F8682004B0704719688A68C2F3426224
:10523000886804A901EB507010F8081C090110F8E7
:10524000100C91FBF0F1A3F86A1004A90A4412F8BB
:10525000081C090112F8102C91FBF2F2A3F8682047
:10526000E0E700BF38B2000890B20008704770470E
:10527000704790F87C30012B18D0012380F87C30E7
:105280002423C0F8803003681A68196821F00101EE
:10529000196022F000520023436601680A60202250
:1052A000C0F8802080F87C30184670470220704794
:1052B00038B590F87C30012B1DD00446012380F8CE
:1052C0007C302423C0F8803003681D681A6822F0FF
:1052D00001021A600268936823F0604319439160E9
:1052E000FFF78CFF23681D602023C4F88030002066
:1052F00084F87C0038BD0220FCE738B590F87C309B
:10530000012B1DD00446012380F87C302423C0F8F3
:10531000803003681D681A6822F001021A60026872
:10532000936823F0606319439160FFF767FF236878
:105330001D602023C4F88030002084F87C0038BD34
:105340000220FCE7014B1868704700BF10000024E2
:1053500070B50D4E0D4D761BB61006D0002455F8D5
:10536000043B01349847A642F9D1094E094D761BFA
:1053700005F054FFB61006D0002455F8043B013464
:105380009847A642F9D170BDA0B60008A0B60008A3
:10539000A8B60008A0B60008830730B548D0541E50
:1053A000002A3FD0CAB2034601E0013C3AD303F8D9
:1053B000012B9D07F9D1032C2DD9CDB245EA052546
:1053C0000F2C45EA054536D9A4F1100222F00F0C46
:1053D00003F1200EE6444FEA121C03F1100242E9E9
:1053E000045542E9025510327245F8D10CF1010220
:1053F00014F00C0F03EB021204F00F0C13D0ACF1FD
:10540000040323F003030433134442F8045B934280
:10541000FBD10CF003042CB1CAB21C4403F8012BDD
:105420009C42FBD130BD64461346002CF4D1F9E711
:1054300003461446BFE71A46A446E0E710B51A4CE7
:10544000002924689AB02ADB009004904FF402707F
:10545000ADF80C0013D001394FF6FF7002910591A1
:10546000ADF80E006946204600F04EF8421C01DA05
:105470008B232360009B00221A701AB010BD4FF6D8
:10548000FF7002910591ADF80E006946204600F0CC
:105490003BF8431C01DA8B2323601AB010BD8B2329
:1054A00023604FF0FF30F8E710000024024B13B1E7
:1054B000024800F005B8704700000000CD54000815
:1054C000002301461A46184601F03CBD38B5084B8A
:1054D000084D5B1B9C1007D0043B1D44013C55F854
:1054E00004399847002CF9D1BDE8384005F09CBE3E
:1054F000ACB60008A8B60008704700BF704700BFF0
:10550000704700BF704700BF2DE9F04FD5B00C4683
:105510000C9191460E930A9002F0A6FE0368179331
:105520001846FBF70DFFA3891690190603D52369CA
:10553000002B00F08B8700242BAB4D46CDE929448E
:10554000CDE91944CDE91B44129428939846189448
:10555000002308940024CDE914342B78002B00F0AC
:10556000DD81AA4604E01AF8013F002B00F0168105
:10557000252BF8D1BAEB050640F014819AF80030DB
:10558000002B00F0CB8100234FF0FF329AF801602E
:105590008DF8833009930AF1010A07921F462B24E4
:1055A0004FF020090AF1010AA6F120035A2B00F25C
:1055B0002D81DFE813F0BA022B012B01B5022B017C
:1055C0002B012B016A002B012B014F02E3022B015F
:1055D0005A02C9022B01C4025B005B005B005B0046
:1055E0005B005B005B005B005B002B012B012B0170
:1055F0002B012B012B012B01BF012B011A0286006D
:10560000BF01BF01BF012B012B012B012B01B002F8
:105610002B012B01C3002B012B012B0124022B0199
:105620005F022B012B013C072B012B012B012B01CE
:105630002B012B012B012B01BF012B011A0288002A
:10564000BF01BF01BF01A302880081002B019602A8
:105650002B018202C500700281002B0124027E0012
:1056600039072B012B0119072B017E00A6F130030E
:1056700000221AF8016B02EB820203EB4202A6F150
:105680003003092BF5D909928EE7DDF828B058468A
:1056900002F0EAFD43681B931846FBF751FE1C908D
:1056A0000646584602F0E0FD83681993002E40F04C
:1056B0007A869AF8006075E79AF8006047F020074C
:1056C00070E747F01007BA060E9B40F18081073360
:1056D00023F007031A465B6852F8084B0E9299466E
:1056E000002BC0F25F85079B013301F01F8054EA55
:1056F000090327F0800B00F0E3840A2C79F1000302
:1057000080F08187303401238DF84F415F460B9341
:105710000DF24F1507990B989DF8832081424FF0A9
:105720000003B8BF01460D9306910F931393109396
:10573000002A7CD0069B0133069378E047F01007DF
:1057400017F0200900F034810E9B073323F0070384
:10575000D3F8049053F8084B0E9327F4806B002382
:1057600000228DF88320079A511C00F00D8254EA24
:1057700009012BF0800740F00682002A41F01080DA
:10578000002B40F0A2841BF001030B9300F037853F
:1057900030238DF84F310DF24F15BBE7BAEB0506FC
:1057A00000F0BC802A9B33442A93299B0133072BAA
:1057B000C8E90056299305DC08F10808089B334422
:1057C0000893DBE60C990A9828AA03F033FC80B909
:1057D0000DF1AC08F2E70C990A9828AA03F02AFC0C
:1057E000002800F08C800D9B1BB10D990A9802F0E7
:1057F00035FC0C9B9B8913F0400F089B18BF4FF0A2
:10580000FF330893089855B0BDE8F08F002E00F0E4
:10581000858000228DF8EC608DF8832001230693AB
:105820000D920B9307920F92139210923BAD17F0CB
:10583000020302D006990231069117F0840B07D1BA
:1058400009990698A1EB0009B9F1000F00F315833F
:105850002A9C8AB1299A0DF1830101320134C8F8DA
:105860000010072A4FF001012A942992C8F8041069
:1058700000F3468308F1080883B1299B21AA01336C
:105880000234C8F80020072B4FF002022A94299313
:10589000C8F8042000F3488308F10808BBF1800F22
:1058A00000F00E82079B0B9AA3EB020BBBF1000FDB
:1058B00000F34F82FB0500F1A5810B9BC8F8043073
:1058C0001C44299BC8F800500133072B2A942993C4
:1058D00000F3C78208F108087B0705D5099B069AE3
:1058E0009D1A002D00F32C83DDE9083206998A42C7
:1058F000ACBF9B185B180893002C7FF46CAF00239F
:1059000029930D9B1BB10D990A9802F0A7FB0DF18D
:10591000AC0855462B78002B7FF423AE2A9B002B36
:105920003FF467AF0C9C0A9828AA214603F082FB3B
:10593000A38960E70E9B073323F00702F2E80234E5
:10594000CDE91434DDE9143424F000440E92994674
:1059500018462146A74B4FF0FF32FBF7D3FE002835
:1059600040F06284A34B484621464FF0FF32FBF7DC
:10597000ABFE002840F05884DDE91401002200232A
:10598000FBF798FE002840F0AD879DF883209A4DE4
:105990009A4B27F080070321472EC8BF1D460023DE
:1059A0000D9306910B9107930F9313931093BFE6FA
:1059B00017F0100340F02E8417F0400200F05487D7
:1059C0000E9A52F8044B0E929946A4B2C5E653F8CB
:1059D000044B0E93FB0600F118847D0640F11284FF
:1059E00044F3C0394B4624B27AE60E9B002253F8AA
:1059F000041B8DF883208DF8EC100E930EE70E9C9F
:105A0000079B54F8045B4FF000098DF88390002D3C
:105A100000F0D5865A1C00F052851A4649462846A1
:105A2000FBF7FEFC0D90002801F057800D9BCDF890
:105A30001C905B1B0B930E9423EAE3739DF8832069
:105A40000693CDF83490CDF83C90CDF84C90CDF83D
:105A500040906DE60E9B53F8042B0992002A80F2C9
:105A6000C983099A0E93524209929AF8006047F04E
:105A7000040797E547F0100B1BF0200900F0818325
:105A80000E9B073323F00703D3F8049053F8084B19
:105A90000E93012364E60E9B53F8044B0E933023C0
:105AA00078268DF88430564B189347F0020B8DF80A
:105AB00085604FF00009022352E6BD0600F18284A2
:105AC000FC0600F17386780600F13C87B90540F1C9
:105AD0006D860E9B089953F8042B0E931170554652
:105AE00018E79AF800606C2E03BF9AF8016047F03F
:105AF00020070AF1010A47F0100753E59AF8006001
